{
  "transactions": [
    {
      "hash": "0x8c77d1d08988b0bc516d6bf14956b8efa7212b2607f3594c207452f2847e1651",
      "transactionType": "CREATE",
      "contractName": "PriceOracle",
      "contractAddress": "0x4f898d5769b211a6ee5f572183597ac7fbec6580",
      "function": null,
      "arguments": [
        "0xb5F4c8Af8723e4cAa64767DD12F55B40Be527BE1"
      ],
      "transaction": {
        "from": "0xb5f4c8af8723e4caa64767dd12f55b40be527be1",
        "gas": "0x4f05c",
        "value": "0x0",
        "input": "0x608060405234801561001057600080fd5b5060405161040738038061040783398101604081905261002f916100be565b806001600160a01b03811661005e57604051631e4fbdf760e01b81526000600482015260240160405180910390fd5b6100678161006e565b50506100ee565b600080546001600160a01b038381166001600160a01b0319831681178455604051919092169283917f8be0079c531659141344cd1fd0a4f28419497f9722a3daafe3b4186f6b6457e09190a35050565b6000602082840312156100d057600080fd5b81516001600160a01b03811681146100e757600080fd5b9392505050565b61030a806100fd6000396000f3fe608060405234801561001057600080fd5b50600436106100565760003560e01c8062e4768b1461005b57806341976e0914610070578063715018a6146100ac5780638da5cb5b146100b4578063f2fde38b146100cd575b600080fd5b61006e610069366004610274565b6100e0565b005b61009961007e36600461029e565b6001600160a01b031660009081526001602052604090205490565b6040519081526020015b60405180910390f35b61006e610189565b6000546001600160a01b03166040516100a391906102c0565b61006e6100db36600461029e565b61019d565b6100e86101db565b6001600160a01b0382166101305760405162461bcd60e51b815260206004820152600a6024820152693d32b937903a37b5b2b760b11b60448201526064015b60405180910390fd5b6001600160a01b03821660008181526001602052604090819020839055517ff9a09e2869a1f88523f00504328d7965866201bafe501573db2e114e3375a0869061017d9084815260200190565b60405180910390a25050565b6101916101db565b61019b6000610208565b565b6101a56101db565b6001600160a01b0381166101cf576000604051631e4fbdf760e01b815260040161012791906102c0565b6101d881610208565b50565b6000546001600160a01b0316331461019b573360405163118cdaa760e01b815260040161012791906102c0565b600080546001600160a01b038381166001600160a01b0319831681178455604051919092169283917f8be0079c531659141344cd1fd0a4f28419497f9722a3daafe3b4186f6b6457e09190a35050565b80356001600160a01b038116811461026f57600080fd5b919050565b6000806040838503121561028757600080fd5b61029083610258565b946020939093013593505050565b6000602082840312156102b057600080fd5b6102b982610258565b9392505050565b6001600160a01b039190911681526020019056fea26469706673582212209e8fe334739d4fa3ee1747ad14ac75a5faee416525b48ee006dc315a8ff9f74864736f6c63430008180033000000000000000000000000b5f4c8af8723e4caa64767dd12f55b40be527be1",
        "nonce": "0x3f",
        "chainId": "0xc3501"
      },
      "additionalContracts": [],
      "isFixedGasLimit": false
    },
    {
      "hash": "0x1bd530f897d196f29bd34b1b344a7f2d549355b7ba455999ff744c9d85a294a7",
      "transactionType": "CALL",
      "contractName": "PriceOracle",
      "contractAddress": "0x4f898d5769b211a6ee5f572183597ac7fbec6580",
      "function": "setPrice(address,uint256)",
      "arguments": [
        "0x916E1AF7B6be4Dc5DaD63976e21ce70aaC825B0E",
        "100000"
      ],
      "transaction": {
        "from": "0xb5f4c8af8723e4caa64767dd12f55b40be527be1",
        "to": "0x4f898d5769b211a6ee5f572183597ac7fbec6580",
        "gas": "0x110b7",
        "value": "0x0",
        "input": "0x00e4768b000000000000000000000000916e1af7b6be4dc5dad63976e21ce70aac825b0e00000000000000000000000000000000000000000000000000000000000186a0",
        "nonce": "0x40",
        "chainId": "0xc3501"
      },
      "additionalContracts": [],
      "isFixedGasLimit": false
    },
    {
      "hash": "0x7efd905c51fe32ccbd1e3687589198667c5188e4192b590fa8afce67a6a95987",
      "transactionType": "CALL",
      "contractName": "PriceOracle",
      "contractAddress": "0x4f898d5769b211a6ee5f572183597ac7fbec6580",
      "function": "setPrice(address,uint256)",
      "arguments": [
        "0x23bA554Ea54a08723AA901C590b29bFBe0da7748",
        "50000"
      ],
      "transaction": {
        "from": "0xb5f4c8af8723e4caa64767dd12f55b40be527be1",
        "to": "0x4f898d5769b211a6ee5f572183597ac7fbec6580",
        "gas": "0x1017f",
        "value": "0x0",
        "input": "0x00e4768b00000000000000000000000023ba554ea54a08723aa901c590b29bfbe0da7748000000000000000000000000000000000000000000000000000000000000c350",
        "nonce": "0x41",
        "chainId": "0xc3501"
      },
      "additionalContracts": [],
      "isFixedGasLimit": false
    },
    {
      "hash": "0x8d8d4973514cb6d57261764a6ec791ee972c22c74b5feb9e8790f616338ebf7b",
      "transactionType": "CALL",
      "contractName": "PriceOracle",
      "contractAddress": "0x4f898d5769b211a6ee5f572183597ac7fbec6580",
      "function": "setPrice(address,uint256)",
      "arguments": [
        "0xa8D0dD3e0FFF072374CcbD608fEf4B6Bb71543C2",
        "50000"
      ],
      "transaction": {
        "from": "0xb5f4c8af8723e4caa64767dd12f55b40be527be1",
        "to": "0x4f898d5769b211a6ee5f572183597ac7fbec6580",
        "gas": "0x1017f",
        "value": "0x0",
        "input": "0x00e4768b000000000000000000000000a8d0dd3e0fff072374ccbd608fef4b6bb71543c2000000000000000000000000000000000000000000000000000000000000c350",
        "nonce": "0x42",
        "chainId": "0xc3501"
      },
      "additionalContracts": [],
      "isFixedGasLimit": false
    },
    {
      "hash": "0x8ee269d6cd5a0ce2de6f93d321a4ee50d55b43b75785a0ef7f5e57e6f7a1e123",
      "transactionType": "CALL",
      "contractName": "PriceOracle",
      "contractAddress": "0x4f898d5769b211a6ee5f572183597ac7fbec6580",
      "function": "setPrice(address,uint256)",
      "arguments": [
        "0x7679653255d0128F7553945A917a636C3ed2F7eB",
        "100"
      ],
      "transaction": {
        "from": "0xb5f4c8af8723e4caa64767dd12f55b40be527be1",
        "to": "0x4f898d5769b211a6ee5f572183597ac7fbec6580",
        "gas": "0x11094",
        "value": "0x0",
        "input": "0x00e4768b0000000000000000000000007679653255d0128f7553945a917a636c3ed2f7eb0000000000000000000000000000000000000000000000000000000000000064",
        "nonce": "0x43",
        "chainId": "0xc3501"
      },
      "additionalContracts": [],
      "isFixedGasLimit": false
    },
    {
      "hash": "0xb81b3f6bd26e0110ae461ab1bdf319975f852c2345f8fd8e4331bb15473c8ab3",
      "transactionType": "CREATE",
      "contractName": "VaultLedger",
      "contractAddress": "0xfd31f95a3ec059d462d34499f07488e06c77d3bf",
      "function": null,
      "arguments": [
        "0xb5F4c8Af8723e4cAa64767DD12F55B40Be527BE1",
        "0x4F898D5769B211a6eE5f572183597ac7FBEc6580"
      ],
      "transaction": {
        "from": "0xb5f4c8af8723e4caa64767dd12f55b40be527be1",
        "gas": "0x3482f8",
        "value": "0x0",
        "input": "0x60806040523480156200001157600080fd5b5060405162002f8c38038062002f8c83398101604081905262000034916200014b565b816001600160a01b0381166200006557604051631e4fbdf760e01b8152600060048201526024015b60405180910390fd5b6200007081620000de565b506001600160a01b038116620000b75760405162461bcd60e51b815260206004820152600b60248201526a7a65726f206f7261636c6560a81b60448201526064016200005c565b600180546001600160a01b0319166001600160a01b03929092169190911790555062000183565b600080546001600160a01b038381166001600160a01b0319831681178455604051919092169283917f8be0079c531659141344cd1fd0a4f28419497f9722a3daafe3b4186f6b6457e09190a35050565b80516001600160a01b03811681146200014657600080fd5b919050565b600080604083850312156200015f57600080fd5b6200016a836200012e565b91506200017a602084016200012e565b90509250929050565b612df980620001936000396000f3fe608060405234801561001057600080fd5b506004361061014e5760003560e01c806393e5e90f116100be57806393e5e90f1461024d5780639ff3495b14610260578063a3031b7714610287578063b66ce4131461028f578063ce5fd993146102a2578063d0b06f5d146102b5578063d251c05a146102be578063d3eb8e4b146102d3578063d904d11e146102e6578063df368112146102ee578063e5a11712146102f6578063f2fde38b14610309578063f350b3131461031c57600080fd5b80630126c6061461015357806319d76dc81461016e57806324591d9b146101835780632550239b146101a35780632a755041146101b65780633a4516f9146101cc5780633f0af8ef146101df5780636548aff0146101e85780636d34cd17146101fb578063715018a61461020e5780637adbf973146102165780637dc0d1d0146102295780638da5cb5b1461023c575b600080fd5b61015b610344565b6040519081526020015b60405180910390f35b61018161017c366004612109565b6103be565b005b610196610191366004612176565b610715565b604051610165919061218f565b6101816101b13660046121b1565b61073f565b6101be6108cb565b60405161016592919061234a565b6101816101da36600461243d565b610cd1565b61015b60065481565b6101816101f63660046124a8565b610eda565b61015b6102093660046124ff565b611129565b6101816111ec565b610181610224366004612529565b611200565b600154610196906001600160a01b031681565b6000546001600160a01b0316610196565b61015b61025b366004612529565b6112a8565b61027361026e366004612176565b6113db565b604051610165989796959493929190612544565b60085461015b565b61015b61029d3660046125a2565b6114bb565b61015b6102b0366004612176565b61176f565b61015b60075481565b6102c6611790565b604051610165919061264b565b6101816102e1366004612748565b6118fb565b60025461015b565b60045461015b565b6101816103043660046127e1565b611b80565b610181610317366004612529565b611c89565b61032f61032a366004612529565b611cc7565b60405161016599989796959493929190612841565b6000805b6002548110156103ba576000600360006002848154811061036b5761036b6128ad565b60009182526020808320909101546001600160a01b031683528201929092526040019020600781015490915060ff16156103b15760048101546103ae90846128d9565b92505b50600101610348565b5090565b6103c6611dad565b6001600160a01b03851660009081526003602052604090206007015460ff161561040b5760405162461bcd60e51b8152600401610402906128ec565b60405180910390fd5b6001600160a01b03851661044e5760405162461bcd60e51b815260206004820152600a6024820152693d32b937903a37b5b2b760b11b6044820152606401610402565b6000856001600160a01b031663313ce5676040518163ffffffff1660e01b8152600401602060405180830381865afa15801561048e573d6000803e3d6000fd5b505050506040513d601f19601f820116820180604052508101906104b29190612918565b90506000866001600160a01b03166370a08231306040518263ffffffff1660e01b81526004016104e2919061218f565b602060405180830381865afa1580156104ff573d6000803e3d6000fd5b505050506040513d601f19601f820116820180604052508101906105239190612935565b90506000610532888385611dda565b600280546001810182556000919091527f405787fa12a823e0f2b7631cc41b3ba8828b3321ca811111fa75cd3aa3bb5ace0180546001600160a01b0319166001600160a01b038b16908117909155604080516101208101825291825280516020601f8b018190048102820181019092528981529293509091818301918a908a9081908401838280828437600092018290525093855250505060ff86811660208085019190915260408085018890526060850187905260808501849052918a1660a085015260c08401899052600160e09094018490526001600160a01b038d811684526003825291909220845181546001600160a01b031916921691909117815590830151909182019061064590826129ef565b50604082015160028201805460ff1990811660ff93841617909155606084015160038401556080840151600484015560a084015160058401805460c087015192851661ffff19909116176101009290941682029390931790925560e08401516006840155920151600790910180549092169015151790556106c4611eb2565b876001600160a01b03167f6222cf56236a989b8097d166ab6ba81a3320fc872d2977743c90d3456fda4730888885856040516107039493929190612ad7565b60405180910390a25050505050505050565b6002818154811061072557600080fd5b6000918252602090912001546001600160a01b0316905081565b610747611dad565b6000610751610344565b905060086040518060e0016040528042815260200189600481111561077857610778612613565b815260200188888080601f016020809104026020016040519081016040528093929190818152602001838380828437600092018290525093855250505060208083018990526040830186905260ff88166060840152861515608090930192909252835460018181018655948252908290208351600690920201908155908201518184018054939492939192909160ff19169083600481111561081c5761081c612613565b02179055506040820151600282019061083590826129ef565b50606082015160038201556080820151600482015560a08201516005909101805460c09093015115156101000261ffff1990931660ff9092169190911791909117905560085461088790600190612afe565b7ff546073462a2c942b57ddbde6175143e610f20de1410e6c09f9d200845eaedc78883856040516108ba93929190612b11565b60405180910390a250505050505050565b60025460609081906001600160401b038111156108ea576108ea61294e565b60405190808252806020026020018201604052801561096157816020015b604080516101208101825260008082526060602080840182905293830182905282018190526080820181905260a0820181905260c0820181905260e0820181905261010082015282526000199092019101816109085790505b50915060005b600254811015610ad8576003600060028381548110610988576109886128ad565b60009182526020808320909101546001600160a01b0390811684528382019490945260409283019091208251610120810190935280549093168252600183018054929392918401916109d990612964565b80601f0160208091040260200160405190810160405280929190818152602001828054610a0590612964565b8015610a525780601f10610a2757610100808354040283529160200191610a52565b820191906000526020600020905b815481529060010190602001808311610a3557829003601f168201915b5050509183525050600282015460ff90811660208301526003830154604083015260048301546060830152600583015480821660808401526101009004811660a0830152600683015460c0830152600790920154909116151560e0909101528351849083908110610ac557610ac56128ad565b6020908102919091010152600101610967565b506004546001600160401b03811115610af357610af361294e565b604051908082528060200260200182016040528015610b6357816020015b60408051610100810182526000808252602080830182905260609383018490529282018190526080820181905260a0820181905260c0820181905260e08201528252600019909201910181610b115790505b50905060005b600454811015610ccc576005600060048381548110610b8a57610b8a6128ad565b60009182526020808320909101548352828101939093526040918201902081516101008101835281546001600160a01b031681526001820154938101939093526002810180549192840191610bde90612964565b80601f0160208091040260200160405190810160405280929190818152602001828054610c0a90612964565b8015610c575780601f10610c2c57610100808354040283529160200191610c57565b820191906000526020600020905b815481529060010190602001808311610c3a57829003601f168201915b50505091835250506003820154602082015260049091015460ff8082161515604084015261010082048116606084015262010000820481166080840152630100000090910416151560a0909101528251839083908110610cb957610cb96128ad565b6020908102919091010152600101610b69565b509091565b610cd9611dad565b6000610ce58787611f63565b6000818152600560205260409020600401549091506301000000900460ff1615610d215760405162461bcd60e51b8152600401610402906128ec565b600480546001810182556000919091527f8a35acfbc15ff81a39ae7d344fd709f28e8600b4aa8c65c6b64bfe7fe36bd19b0181905560408051610100810182526001600160a01b038916815260208181018990528251601f8801829004820281018201845287815291928301919088908890819084018382808284376000920182905250938552505050602080830187905260408084018390526060840183905260ff87166080850152600160a09094018490528583526005825291829020845181546001600160a01b0319166001600160a01b0390911617815590840151928101929092558201516002820190610e1990826129ef565b506060820151600382015560808201516004909101805460a084015160c085015160e09095015161ffff1990921693151561ff0019169390931761010060ff948516021763ffff0000191662010000939094169290920263ff00000019169290921763010000009115159190910217905560405186906001600160a01b038916907f479c5957eadd8a1e1f77fcf7d35edd5a1fcdbe3b423b90792c29798b8037279490610ec99089908990612b35565b60405180910390a350505050505050565b610ee2611dad565b6001600160a01b03851660009081526003602052604090206007015460ff16610f1d5760405162461bcd60e51b815260040161040290612b49565b6001600160a01b03831660009081526003602052604090206007015460ff16610f585760405162461bcd60e51b815260040161040290612b79565b6001600160a01b038116610f995760405162461bcd60e51b81526020600482015260086024820152670f4cae4de40c8caf60c31b6044820152606401610402565b60405163095ea7b360e01b81526001600160a01b0386169063095ea7b390610fc79084908890600401612baa565b6020604051808303816000875af1158015610fe6573d6000803e3d6000fd5b505050506040513d601f19601f8201168201806040525081019061100a9190612bc3565b5060405163450666ab60e11b81526001600160a01b03868116600483015260248201869052848116604483015260648201849052821690638a0ccd5690608401600060405180830381600087803b15801561106457600080fd5b505af1158015611078573d6000803e3d6000fd5b5050505061108585611fa5565b61108e83611fa5565b611096611eb2565b61109e610344565b6006554260075560408051858152602081018490526001600160a01b0385811692908816917fe6905a732e81379bca1aebf5706f0ad1dbf1dd86b732a4f246bededfd9d9c4b9910160405180910390a3600080516020612da483398151915260065460075460405161111a929190918252602082015260400190565b60405180910390a15050505050565b6001600160a01b038216600090815260036020526040812060070154819060ff166111b557836001600160a01b031663313ce5676040518163ffffffff1660e01b8152600401602060405180830381865afa15801561118c573d6000803e3d6000fd5b505050506040513d601f19601f820116820180604052508101906111b09190612918565b6111d5565b6001600160a01b03841660009081526003602052604090206002015460ff165b90506111e2848483611dda565b9150505b92915050565b6111f4611dad565b6111fe6000612046565b565b611208611dad565b6001600160a01b03811661124c5760405162461bcd60e51b815260206004820152600b60248201526a7a65726f206f7261636c6560a81b6044820152606401610402565b6001546040516001600160a01b038084169216907f078c3b417dadf69374a59793b829c52001247130433427049317bde56607b1b790600090a3600180546001600160a01b0319166001600160a01b0392909216919091179055565b600080826001600160a01b03166370a08231306040518263ffffffff1660e01b81526004016112d7919061218f565b602060405180830381865afa1580156112f4573d6000803e3d6000fd5b505050506040513d601f19601f820116820180604052508101906113189190612935565b6001600160a01b0384166000908152600360205260408120600701549192509060ff166113a657836001600160a01b031663313ce5676040518163ffffffff1660e01b8152600401602060405180830381865afa15801561137d573d6000803e3d6000fd5b505050506040513d601f19601f820116820180604052508101906113a19190612918565b6113c6565b6001600160a01b03841660009081526003602052604090206002015460ff165b90506113d3848383611dda565b949350505050565b6005602052600090815260409020805460018201546002830180546001600160a01b0390931693919261140d90612964565b80601f016020809104026020016040519081016040528092919081815260200182805461143990612964565b80156114865780601f1061145b57610100808354040283529160200191611486565b820191906000526020600020905b81548152906001019060200180831161146957829003601f168201915b505050600384015460049094015492939260ff8082169350610100820481169250620100008204811691630100000090041688565b60006114c5611dad565b6001600160a01b03881660009081526003602052604090206007015460ff166115005760405162461bcd60e51b815260040161040290612b49565b6001600160a01b03851660009081526003602052604090206007015460ff1661153b5760405162461bcd60e51b815260040161040290612b79565b6001600160a01b03831661157c5760405162461bcd60e51b815260206004820152600860248201526707a65726f206476760c41b6044820152606401610402565b60405163095ea7b360e01b81526001600160a01b0389169063095ea7b3906115aa9086908b90600401612baa565b6020604051808303816000875af11580156115c9573d6000803e3d6000fd5b505050506040513d601f19601f820116820180604052508101906115ed9190612bc3565b50826001600160a01b031663266dc21c306040518060800160405280600060ff1681526020018c6001600160a01b031681526020018b81526020016000815250308a6040518060800160405280600060ff1681526020018c6001600160a01b031681526020018b81526020016000815250886040518763ffffffff1660e01b815260040161168096959493929190612c0f565b6020604051808303816000875af115801561169f573d6000803e3d6000fd5b505050506040513d601f19601f820116820180604052508101906116c39190612935565b90506116ce88611fa5565b6116d6611eb2565b6116de610344565b6006554260075560408051888152602081018690526001600160a01b0387811692908b169184917f624e7cf0917d7249de4c2d369ad865cfe9e5d8b6bfe87fc5898c698b70adf65f910160405180910390a4600080516020612da483398151915260065460075460405161175c929190918252602082015260400190565b60405180910390a1979650505050505050565b6004818154811061177f57600080fd5b600091825260209091200154905081565b60606008805480602002602001604051908101604052809291908181526020016000905b828210156118f257838290600052602060002090600602016040518060e0016040529081600082015481526020016001820160009054906101000a900460ff16600481111561180557611805612613565b600481111561181657611816612613565b815260200160028201805461182a90612964565b80601f016020809104026020016040519081016040528092919081815260200182805461185690612964565b80156118a35780601f10611878576101008083540402835291602001916118a3565b820191906000526020600020905b81548152906001019060200180831161188657829003601f168201915b505050918352505060038201546020808301919091526004830154604083015260059092015460ff808216606084015261010090910416151560809091015290825260019290920191016117b4565b50505050905090565b611903611dad565b848314801561191157508281145b61194f5760405162461bcd60e51b815260206004820152600f60248201526e0d8cadccee8d040dad2e6dac2e8c6d608b1b6044820152606401610402565b60005b85811015611b2f57600060036000898985818110611972576119726128ad565b90506020020160208101906119879190612529565b6001600160a01b031681526020810191909152604001600020600781015490915060ff166119e75760405162461bcd60e51b815260206004820152600d60248201526c1d5b9adb9bdddb88185cdcd95d609a1b6044820152606401610402565b8787838181106119f9576119f96128ad565b9050602002016020810190611a0e9190612529565b6001600160a01b03166370a08231306040518263ffffffff1660e01b8152600401611a39919061218f565b602060405180830381865afa158015611a56573d6000803e3d6000fd5b505050506040513d601f19601f82011682018060405250810190611a7a9190612935565b6003820155611abb888884818110611a9457611a946128ad565b9050602002016020810190611aa99190612529565b6003830154600284015460ff16611dda565b6004820155858583818110611ad257611ad26128ad565b9050602002016020810190611ae79190612c5d565b8160050160016101000a81548160ff021916908360ff160217905550838383818110611b1557611b156128ad565b602002919091013560069092019190915550600101611952565b50611b38611eb2565b611b40610344565b6006819055426007819055604051600080516020612da483398151915292611b7092908252602082015260400190565b60405180910390a1505050505050565b611b88611dad565b6000611b948787611f63565b60008181526005602052604090206004810154919250906301000000900460ff16611bef5760405162461bcd60e51b815260206004820152600b60248201526a1d5b9adb9bdddb881b999d60aa1b6044820152606401610402565b6003810186905560048101805460ff858116620100000262ff0000199188166101000261ff00198a15151661ffff1990941693909317929092171617905560405187906001600160a01b038a16907fd9328d9939a830428cdadb78f015c5daa624d699a18aaab237107198cd6f922290611c77908a908a909182521515602082015260400190565b60405180910390a35050505050505050565b611c91611dad565b6001600160a01b038116611cbb576000604051631e4fbdf760e01b8152600401610402919061218f565b611cc481612046565b50565b600360205260009081526040902080546001820180546001600160a01b039092169291611cf390612964565b80601f0160208091040260200160405190810160405280929190818152602001828054611d1f90612964565b8015611d6c5780601f10611d4157610100808354040283529160200191611d6c565b820191906000526020600020905b815481529060010190602001808311611d4f57829003601f168201915b50505060028401546003850154600486015460058701546006880154600790980154969760ff94851697939650919450808416936101009091048116921689565b6000546001600160a01b031633146111fe573360405163118cdaa760e01b8152600401610402919061218f565b6000821580611df257506001546001600160a01b0316155b15611dff57506000611eab565b6001546040516341976e0960e01b81526000916001600160a01b0316906341976e0990611e3090889060040161218f565b602060405180830381865afa158015611e4d573d6000803e3d6000fd5b505050506040513d601f19601f82011682018060405250810190611e719190612935565b905080600003611e85576000915050611eab565b611e9360ff8416600a612d5e565b611e9d8286612d6a565b611ea79190612d81565b9150505b9392505050565b6000611ebc610344565b905080600003611ec95750565b60005b600254811015611f5f5760006003600060028481548110611eef57611eef6128ad565b60009182526020808320909101546001600160a01b031683528201929092526040019020600781015490915060ff1615611f56578281600401546064611f359190612d6a565b611f3f9190612d81565b60058201805460ff191660ff929092169190911790555b50600101611ecc565b5050565b6040516001600160601b0319606084901b1660208201526034810182905260009060540160405160208183030381529060405280519060200120905092915050565b6001600160a01b0381166000818152600360205260409081902090516370a0823160e01b81529091906370a0823190611fe290309060040161218f565b602060405180830381865afa158015611fff573d6000803e3d6000fd5b505050506040513d601f19601f820116820180604052508101906120239190612935565b60038201819055600282015461203d91849160ff16611dda565b60049091015550565b600080546001600160a01b038381166001600160a01b0319831681178455604051919092169283917f8be0079c531659141344cd1fd0a4f28419497f9722a3daafe3b4186f6b6457e09190a35050565b80356001600160a01b03811681146120ad57600080fd5b919050565b60008083601f8401126120c457600080fd5b5081356001600160401b038111156120db57600080fd5b6020830191508360208285010111156120f357600080fd5b9250929050565b60ff81168114611cc457600080fd5b60008060008060006080868803121561212157600080fd5b61212a86612096565b945060208601356001600160401b0381111561214557600080fd5b612151888289016120b2565b9095509350506040860135612165816120fa565b949793965091946060013592915050565b60006020828403121561218857600080fd5b5035919050565b6001600160a01b0391909116815260200190565b8015158114611cc457600080fd5b60008060008060008060a087890312156121ca57600080fd5b8635600581106121d957600080fd5b955060208701356001600160401b038111156121f457600080fd5b61220089828a016120b2565b90965094505060408701359250606087013561221b816120fa565b9150608087013561222b816121a3565b809150509295509295509295565b6000815180845260005b8181101561225f57602081850181015186830182015201612243565b506000602082860101526020601f19601f83011685010191505092915050565b600082825180855260208086019550808260051b84010181860160005b8481101561233d57858303601f19018952815180516001600160a01b03168452848101518585015260408082015161010082870181905291906122e183880182612239565b9250505060608083015181870152506080808301511515818701525060a0808301516123118288018260ff169052565b505060c08281015160ff169086015260e09182015115159190940152978301979083019060010161229c565b5090979650505050505050565b60006040808301604084528086518083526060925060608601915060608160051b8701016020808a0160005b8481101561241d57898403605f19018652815180516001600160a01b031685526101208482015181868801526123ae82880182612239565b915050898201516123c38b88018260ff169052565b5081890151868a01526080808301519087015260a08083015160ff9081169188019190915260c0808401519091169087015260e0808301519087015261010091820151151591909501529482019490820190600101612376565b505087820390880152612430818961227f565b9998505050505050505050565b60008060008060008060a0878903121561245657600080fd5b61245f87612096565b95506020870135945060408701356001600160401b0381111561248157600080fd5b61248d89828a016120b2565b90955093505060608701359150608087013561222b816120fa565b600080600080600060a086880312156124c057600080fd5b6124c986612096565b9450602086013593506124de60408701612096565b9250606086013591506124f360808701612096565b90509295509295909350565b6000806040838503121561251257600080fd5b61251b83612096565b946020939093013593505050565b60006020828403121561253b57600080fd5b611eab82612096565b6001600160a01b038916815260208101889052610100604082018190526000906125708382018a612239565b60608401989098525050931515608085015260ff92831660a0850152911660c0830152151560e0909101529392505050565b600080600080600080600060e0888a0312156125bd57600080fd5b6125c688612096565b9650602088013595506125db60408901612096565b94506125e960608901612096565b9350608088013592506125fe60a08901612096565b915060c0880135905092959891949750929550565b634e487b7160e01b600052602160045260246000fd5b6005811061264757634e487b7160e01b600052602160045260246000fd5b9052565b600060208083018184528085518083526040925060408601915060408160051b87010184880160005b838110156126f657603f19898403018552815160e0815185528882015161269d8a870182612629565b508782015181898701526126b382870182612239565b606084810151908801526080808501519088015260a08085015160ff169088015260c0938401511515939096019290925250509386019390860190600101612674565b509098975050505050505050565b60008083601f84011261271657600080fd5b5081356001600160401b0381111561272d57600080fd5b6020830191508360208260051b85010111156120f357600080fd5b6000806000806000806060878903121561276157600080fd5b86356001600160401b038082111561277857600080fd5b6127848a838b01612704565b9098509650602089013591508082111561279d57600080fd5b6127a98a838b01612704565b909650945060408901359150808211156127c257600080fd5b506127cf89828a01612704565b979a9699509497509295939492505050565b60008060008060008060c087890312156127fa57600080fd5b61280387612096565b955060208701359450604087013593506060870135612821816121a3565b92506080870135612831816120fa565b915060a087013561222b816120fa565b6001600160a01b038a168152610120602082018190526000906128668382018c612239565b91505060ff8916604083015287606083015286608083015260ff861660a083015260ff851660c08301528360e08301528215156101008301529a9950505050505050505050565b634e487b7160e01b600052603260045260246000fd5b634e487b7160e01b600052601160045260246000fd5b808201808211156111e6576111e66128c3565b602080825260129082015271185b1c9958591e481c9959da5cdd195c995960721b604082015260600190565b60006020828403121561292a57600080fd5b8151611eab816120fa565b60006020828403121561294757600080fd5b5051919050565b634e487b7160e01b600052604160045260246000fd5b600181811c9082168061297857607f821691505b60208210810361299857634e487b7160e01b600052602260045260246000fd5b50919050565b601f8211156129ea576000816000526020600020601f850160051c810160208610156129c75750805b601f850160051c820191505b818110156129e6578281556001016129d3565b5050505b505050565b81516001600160401b03811115612a0857612a0861294e565b612a1c81612a168454612964565b8461299e565b602080601f831160018114612a515760008415612a395750858301515b600019600386901b1c1916600185901b1785556129e6565b600085815260208120601f198616915b82811015612a8057888601518255948401946001909101908401612a61565b5085821015612a9e5787850151600019600388901b60f8161c191681555b5050505050600190811b01905550565b81835281816020850137506000828201602090810191909152601f909101601f19169091010190565b606081526000612aeb606083018688612aae565b6020830194909452506040015292915050565b818103818111156111e6576111e66128c3565b60608101612b1f8286612629565b8360208301528215156040830152949350505050565b6020815260006113d3602083018486612aae565b6020808252601690820152751d1bdad95b925b881b9bdd081c9959da5cdd195c995960521b604082015260600190565b6020808252601790820152761d1bdad95b93dd5d081b9bdd081c9959da5cdd195c9959604a1b604082015260600190565b6001600160a01b03929092168252602082015260400190565b600060208284031215612bd557600080fd5b8151611eab816121a3565b805160ff1682526020808201516001600160a01b03169083015260408082015190830152606090810151910152565b6001600160a01b038781168252610180820190612c2f6020840189612be0565b86811660a0840152851660c0830152612c4b60e0830185612be0565b82610160830152979650505050505050565b600060208284031215612c6f57600080fd5b8135611eab816120fa565b600181815b80851115612cb5578160001904821115612c9b57612c9b6128c3565b80851615612ca857918102915b93841c9390800290612c7f565b509250929050565b600082612ccc575060016111e6565b81612cd9575060006111e6565b8160018114612cef5760028114612cf957612d15565b60019150506111e6565b60ff841115612d0a57612d0a6128c3565b50506001821b6111e6565b5060208310610133831016604e8410600b8410161715612d38575081810a6111e6565b612d428383612c7a565b8060001904821115612d5657612d566128c3565b029392505050565b6000611eab8383612cbd565b80820281158282048414176111e6576111e66128c3565b600082612d9e57634e487b7160e01b600052601260045260246000fd5b50049056feadc2f4e849f9fb6479b74a2a01f529e3cad1326fb81f633a131475aeeb135ab6a2646970667358221220e57049a59210a83234e1c9caee22b4b7032b323f292f12868b024d0b5e04bfd364736f6c63430008180033000000000000000000000000b5f4c8af8723e4caa64767dd12f55b40be527be10000000000000000000000004f898d5769b211a6ee5f572183597ac7fbec6580",
        "nonce": "0x44",
        "chainId": "0xc3501"
      },
      "additionalContracts": [],
      "isFixedGasLimit": false
    },
    {
      "hash": "0xe4d5adceb2b88f1d88f3c67870727d5d4317038e5851953e92c8eb1f96007b3b",
      "transactionType": "CALL",
      "contractName": null,
      "contractAddress": "0x916e1af7b6be4dc5dad63976e21ce70aac825b0e",
      "function": "transfer(address,uint256)",
      "arguments": [
        "0xFD31f95A3EC059d462d34499f07488e06c77d3bf",
        "350000000000000000000000"
      ],
      "transaction": {
        "from": "0xb5f4c8af8723e4caa64767dd12f55b40be527be1",
        "to": "0x916e1af7b6be4dc5dad63976e21ce70aac825b0e",
        "gas": "0x126b2",
        "value": "0x0",
        "input": "0xa9059cbb000000000000000000000000fd31f95a3ec059d462d34499f07488e06c77d3bf000000000000000000000000000000000000000000004a1d89bb94865ec00000",
        "nonce": "0x45",
        "chainId": "0xc3501"
      },
      "additionalContracts": [],
      "isFixedGasLimit": false
    },
    {
      "hash": "0xc1220e873fb125797877fb5ef27727a7f9f67bb4d4a151dffd6d481c401e38ad",
      "transactionType": "CALL",
      "contractName": null,
      "contractAddress": "0x23ba554ea54a08723aa901c590b29bfbe0da7748",
      "function": "transfer(address,uint256)",
      "arguments": [
        "0xFD31f95A3EC059d462d34499f07488e06c77d3bf",
        "200000000000000000000000"
      ],
      "transaction": {
        "from": "0xb5f4c8af8723e4caa64767dd12f55b40be527be1",
        "to": "0x23ba554ea54a08723aa901c590b29bfbe0da7748",
        "gas": "0xfc5c",
        "value": "0x0",
        "input": "0xa9059cbb000000000000000000000000fd31f95a3ec059d462d34499f07488e06c77d3bf000000000000000000000000000000000000000000002a5a058fc295ed000000",
        "nonce": "0x46",
        "chainId": "0xc3501"
      },
      "additionalContracts": [],
      "isFixedGasLimit": false
    },
    {
      "hash": "0xf8b6ff189dd624e7e908db37264a8d4bcd857e7587971060cda882c2a120d100",
      "transactionType": "CALL",
      "contractName": null,
      "contractAddress": "0xa8d0dd3e0fff072374ccbd608fef4b6bb71543c2",
      "function": "transfer(address,uint256)",
      "arguments": [
        "0xFD31f95A3EC059d462d34499f07488e06c77d3bf",
        "50000000000000000000000"
      ],
      "transaction": {
        "from": "0xb5f4c8af8723e4caa64767dd12f55b40be527be1",
        "to": "0xa8d0dd3e0fff072374ccbd608fef4b6bb71543c2",
        "gas": "0x10b46",
        "value": "0x0",
        "input": "0xa9059cbb000000000000000000000000fd31f95a3ec059d462d34499f07488e06c77d3bf000000000000000000000000000000000000000000000a968163f0a57b400000",
        "nonce": "0x47",
        "chainId": "0xc3501"
      },
      "additionalContracts": [],
      "isFixedGasLimit": false
    },
    {
      "hash": "0xcff21f3de86d9c30c9a61b2e41648cd2e28bf7cf7f61fd178a14d02e3ab3ef1e",
      "transactionType": "CALL",
      "contractName": null,
      "contractAddress": "0x7679653255d0128f7553945a917a636c3ed2f7eb",
      "function": "transfer(address,uint256)",
      "arguments": [
        "0xFD31f95A3EC059d462d34499f07488e06c77d3bf",
        "100000000000"
      ],
      "transaction": {
        "from": "0xb5f4c8af8723e4caa64767dd12f55b40be527be1",
        "to": "0x7679653255d0128f7553945a917a636c3ed2f7eb",
        "gas": "0x10b00",
        "value": "0x0",
        "input": "0xa9059cbb000000000000000000000000fd31f95a3ec059d462d34499f07488e06c77d3bf000000000000000000000000000000000000000000000000000000174876e800",
        "nonce": "0x48",
        "chainId": "0xc3501"
      },
      "additionalContracts": [],
      "isFixedGasLimit": false
    },
    {
      "hash": "0xa125b2abd60b56cd8d2e7511e6d5abe39862c2fc399ce5ac69bc820e62cbe28c",
      "transactionType": "CALL",
      "contractName": "VaultLedger",
      "contractAddress": "0xfd31f95a3ec059d462d34499f07488e06c77d3bf",
      "function": "addERC20Asset(address,string,uint8,uint256)",
      "arguments": [
        "0x916E1AF7B6be4Dc5DaD63976e21ce70aaC825B0E",
        "BOND-GOV-6M",
        "15",
        "420"
      ],
      "transaction": {
        "from": "0xb5f4c8af8723e4caa64767dd12f55b40be527be1",
        "to": "0xfd31f95a3ec059d462d34499f07488e06c77d3bf",
        "gas": "0x5f816",
        "value": "0x0",
        "input": "0x19d76dc8000000000000000000000000916e1af7b6be4dc5dad63976e21ce70aac825b0e0000000000000000000000000000000000000000000000000000000000000080000000000000000000000000000000000000000000000000000000000000000f00000000000000000000000000000000000000000000000000000000000001a4000000000000000000000000000000000000000000000000000000000000000b424f4e442d474f562d364d000000000000000000000000000000000000000000",
        "nonce": "0x49",
        "chainId": "0xc3501"
      },
      "additionalContracts": [],
      "isFixedGasLimit": false
    },
    {
      "hash": "0x17a0c54d3f0eab88302d6777505a0cb2091221b480e2309889a25893e9e352ee",
      "transactionType": "CALL",
      "contractName": "VaultLedger",
      "contractAddress": "0xfd31f95a3ec059d462d34499f07488e06c77d3bf",
      "function": "addERC20Asset(address,string,uint8,uint256)",
      "arguments": [
        "0x23bA554Ea54a08723AA901C590b29bFBe0da7748",
        "RECV-ACME-90D",
        "55",
        "1100"
      ],
      "transaction": {
        "from": "0xb5f4c8af8723e4caa64767dd12f55b40be527be1",
        "to": "0xfd31f95a3ec059d462d34499f07488e06c77d3bf",
        "gas": "0x5e00f",
        "value": "0x0",
        "input": "0x19d76dc800000000000000000000000023ba554ea54a08723aa901c590b29bfbe0da774800000000000000000000000000000000000000000000000000000000000000800000000000000000000000000000000000000000000000000000000000000037000000000000000000000000000000000000000000000000000000000000044c000000000000000000000000000000000000000000000000000000000000000d524543562d41434d452d39304400000000000000000000000000000000000000",
        "nonce": "0x4a",
        "chainId": "0xc3501"
      },
      "additionalContracts": [],
      "isFixedGasLimit": false
    },
    {
      "hash": "0xb2e55c2bcf2cd3d04c7881b0a1601e3903e2f7d6d6c69966b70ffe0d204c4eb8",
      "transactionType": "CALL",
      "contractName": "VaultLedger",
      "contractAddress": "0xfd31f95a3ec059d462d34499f07488e06c77d3bf",
      "function": "addERC20Asset(address,string,uint8,uint256)",
      "arguments": [
        "0xa8D0dD3e0FFF072374CcbD608fEf4B6Bb71543C2",
        "RECV-BETA-30D",
        "45",
        "800"
      ],
      "transaction": {
        "from": "0xb5f4c8af8723e4caa64767dd12f55b40be527be1",
        "to": "0xfd31f95a3ec059d462d34499f07488e06c77d3bf",
        "gas": "0x62995",
        "value": "0x0",
        "input": "0x19d76dc8000000000000000000000000a8d0dd3e0fff072374ccbd608fef4b6bb71543c20000000000000000000000000000000000000000000000000000000000000080000000000000000000000000000000000000000000000000000000000000002d0000000000000000000000000000000000000000000000000000000000000320000000000000000000000000000000000000000000000000000000000000000d524543562d424554412d33304400000000000000000000000000000000000000",
        "nonce": "0x4b",
        "chainId": "0xc3501"
      },
      "additionalContracts": [],
      "isFixedGasLimit": false
    },
    {
      "hash": "0xbadb2e50ec1ab9c983e4eb1fd8bdf83af8c6ac6da9ddcf385ff5a767e73e0e41",
      "transactionType": "CALL",
      "contractName": "VaultLedger",
      "contractAddress": "0xfd31f95a3ec059d462d34499f07488e06c77d3bf",
      "function": "addERC20Asset(address,string,uint8,uint256)",
      "arguments": [
        "0x7679653255d0128F7553945A917a636C3ed2F7eB",
        "STABLE-USDr",
        "0",
        "0"
      ],
      "transaction": {
        "from": "0xb5f4c8af8723e4caa64767dd12f55b40be527be1",
        "to": "0xfd31f95a3ec059d462d34499f07488e06c77d3bf",
        "gas": "0x55f67",
        "value": "0x0",
        "input": "0x19d76dc80000000000000000000000007679653255d0128f7553945a917a636c3ed2f7eb000000000000000000000000000000000000000000000000000000000000008000000000000000000000000000000000000000000000000000000000000000000000000000000000000000000000000000000000000000000000000000000000000000000000000000000000000000000000000000000000000000000000000b535441424c452d55534472000000000000000000000000000000000000000000",
        "nonce": "0x4c",
        "chainId": "0xc3501"
      },
      "additionalContracts": [],
      "isFixedGasLimit": false
    },
    {
      "hash": "0x91dbf2aaa3080afcdf2d430d5695607396f5c11254502a2fb4932207db42b2e8",
      "transactionType": "CALL",
      "contractName": "VaultLedger",
      "contractAddress": "0xfd31f95a3ec059d462d34499f07488e06c77d3bf",
      "function": "addERC721Asset(address,uint256,string,uint256,uint8)",
      "arguments": [
        "0x24a059519f65659337cDafddc104835C11BCb5ce",
        "1",
        "ART-PICASSO-01",
        "5000000000",
        "20"
      ],
      "transaction": {
        "from": "0xb5f4c8af8723e4caa64767dd12f55b40be527be1",
        "to": "0xfd31f95a3ec059d462d34499f07488e06c77d3bf",
        "gas": "0x3e2d4",
        "value": "0x0",
        "input": "0x3a4516f900000000000000000000000024a059519f65659337cdafddc104835c11bcb5ce000000000000000000000000000000000000000000000000000000000000000100000000000000000000000000000000000000000000000000000000000000a0000000000000000000000000000000000000000000000000000000012a05f2000000000000000000000000000000000000000000000000000000000000000014000000000000000000000000000000000000000000000000000000000000000e4152542d5049434153534f2d3031000000000000000000000000000000000000",
        "nonce": "0x4d",
        "chainId": "0xc3501"
      },
      "additionalContracts": [],
      "isFixedGasLimit": false
    },
    {
      "hash": "0xea3f2e096d82ce661a4f0a1e8221c38f41e951361749a6f71da0614c6498fd73",
      "transactionType": "CALL",
      "contractName": "VaultLedger",
      "contractAddress": "0xfd31f95a3ec059d462d34499f07488e06c77d3bf",
      "function": "addERC721Asset(address,uint256,string,uint256,uint8)",
      "arguments": [
        "0xb6ab2e98811bFf69Fc60Fb1Cc83A2E043C096247",
        "1",
        "ART-WARHOL-01",
        "2500000000",
        "25"
      ],
      "transaction": {
        "from": "0xb5f4c8af8723e4caa64767dd12f55b40be527be1",
        "to": "0xfd31f95a3ec059d462d34499f07488e06c77d3bf",
        "gas": "0x3bb86",
        "value": "0x0",
        "input": "0x3a4516f9000000000000000000000000b6ab2e98811bff69fc60fb1cc83a2e043c096247000000000000000000000000000000000000000000000000000000000000000100000000000000000000000000000000000000000000000000000000000000a0000000000000000000000000000000000000000000000000000000009502f9000000000000000000000000000000000000000000000000000000000000000019000000000000000000000000000000000000000000000000000000000000000d4152542d574152484f4c2d303100000000000000000000000000000000000000",
        "nonce": "0x4e",
        "chainId": "0xc3501"
      },
      "additionalContracts": [],
      "isFixedGasLimit": false
    }
  ],
  "receipts": [
    {
      "status": "0x1",
      "cumulativeGasUsed": "0x3cc96",
      "logs": [
        {
          "address": "0x4f898d5769b211a6ee5f572183597ac7fbec6580",
          "topics": [
            "0x8be0079c531659141344cd1fd0a4f28419497f9722a3daafe3b4186f6b6457e0",
            "0x0000000000000000000000000000000000000000000000000000000000000000",
            "0x000000000000000000000000b5f4c8af8723e4caa64767dd12f55b40be527be1"
          ],
          "data": "0x",
          "blockHash": "0x5cb5f83b79f263aa381cffd83fbae31ec435fae8331dd4c3a2d4532146f0b633",
          "blockNumber": "0x7a16e9",
          "transactionHash": "0x8c77d1d08988b0bc516d6bf14956b8efa7212b2607f3594c207452f2847e1651",
          "transactionIndex": "0x0",
          "logIndex": "0x0",
          "removed": false
        }
      ],
      "logsBloom": "0x000000000000000000000000000000000000000000000000008000000000000000000000000000000000000000400000000000000000000000000000000000000000000000000000000000000000000000010000000000000000000000000000000000000200000000000000000008001000000000000000000000000000004000000000100000000000000000000000000000000000000000000000000000000000000000000000000000000000000000000000000000000000000000000000000000000000000000000000000000000000000004000000000080000000a0000000000000000000000000000000000000000000000000000000000000000000",
      "type": "0x0",
      "transactionHash": "0x8c77d1d08988b0bc516d6bf14956b8efa7212b2607f3594c207452f2847e1651",
      "transactionIndex": "0x0",
      "blockHash": "0x5cb5f83b79f263aa381cffd83fbae31ec435fae8331dd4c3a2d4532146f0b633",
      "blockNumber": "0x7a16e9",
      "gasUsed": "0x3cc96",
      "effectiveGasPrice": "0x0",
      "from": "0xb5f4c8af8723e4caa64767dd12f55b40be527be1",
      "to": null,
      "contractAddress": "0x4f898d5769b211a6ee5f572183597ac7fbec6580"
    },
    {
      "status": "0x1",
      "cumulativeGasUsed": "0x4870f",
      "logs": [
        {
          "address": "0x4f898d5769b211a6ee5f572183597ac7fbec6580",
          "topics": [
            "0xf9a09e2869a1f88523f00504328d7965866201bafe501573db2e114e3375a086",
            "0x000000000000000000000000916e1af7b6be4dc5dad63976e21ce70aac825b0e"
          ],
          "data": "0x00000000000000000000000000000000000000000000000000000000000186a0",
          "blockHash": "0x5cb5f83b79f263aa381cffd83fbae31ec435fae8331dd4c3a2d4532146f0b633",
          "blockNumber": "0x7a16e9",
          "transactionHash": "0x1bd530f897d196f29bd34b1b344a7f2d549355b7ba455999ff744c9d85a294a7",
          "transactionIndex": "0x1",
          "logIndex": "0x1",
          "removed": false
        }
      ],
      "logsBloom": "0x00000000000000000000000000000000000000000000000000000000000000000000000200000000000000000040000000000000000000000000000000000000000000000000000000000000000000000000000000000000000000000000000000000000000000000000000000000000000000000000000000000000000000000000000010001000000000000000000000010000000000000000000000000000000000000000000000000000000000000000000000000000000000000000000000000000000000000000000000000000000000000000080000000000000080000000000000020000000000000000000000080000000000000000000000000000",
      "type": "0x0",
      "transactionHash": "0x1bd530f897d196f29bd34b1b344a7f2d549355b7ba455999ff744c9d85a294a7",
      "transactionIndex": "0x1",
      "blockHash": "0x5cb5f83b79f263aa381cffd83fbae31ec435fae8331dd4c3a2d4532146f0b633",
      "blockNumber": "0x7a16e9",
      "gasUsed": "0xba79",
      "effectiveGasPrice": "0x0",
      "from": "0xb5f4c8af8723e4caa64767dd12f55b40be527be1",
      "to": "0x4f898d5769b211a6ee5f572183597ac7fbec6580",
      "contractAddress": null
    },
    {
      "status": "0x1",
      "cumulativeGasUsed": "0x5417c",
      "logs": [
        {
          "address": "0x4f898d5769b211a6ee5f572183597ac7fbec6580",
          "topics": [
            "0xf9a09e2869a1f88523f00504328d7965866201bafe501573db2e114e3375a086",
            "0x00000000000000000000000023ba554ea54a08723aa901c590b29bfbe0da7748"
          ],
          "data": "0x000000000000000000000000000000000000000000000000000000000000c350",
          "blockHash": "0x5cb5f83b79f263aa381cffd83fbae31ec435fae8331dd4c3a2d4532146f0b633",
          "blockNumber": "0x7a16e9",
          "transactionHash": "0x7efd905c51fe32ccbd1e3687589198667c5188e4192b590fa8afce67a6a95987",
          "transactionIndex": "0x2",
          "logIndex": "0x2",
          "removed": false
        }
      ],
      "logsBloom": "0x00000000000000000000000000000000000000000000000000000000000000000000000200000000000000000040000000000000000000000000000000000000000000000000000000000000000000000000000000000000000000000000000000000000000000000000000000000000000000000000000000000000000000000000000010000000000000000000000000000000000000000000000000000000000000000400000000000000000000000000000000000000000000000000000000000000000000000000000000000000000000000000080020000000000080000000000000020000000000000000000000000000000000000000000000000008",
      "type": "0x0",
      "transactionHash": "0x7efd905c51fe32ccbd1e3687589198667c5188e4192b590fa8afce67a6a95987",
      "transactionIndex": "0x2",
      "blockHash": "0x5cb5f83b79f263aa381cffd83fbae31ec435fae8331dd4c3a2d4532146f0b633",
      "blockNumber": "0x7a16e9",
      "gasUsed": "0xba6d",
      "effectiveGasPrice": "0x0",
      "from": "0xb5f4c8af8723e4caa64767dd12f55b40be527be1",
      "to": "0x4f898d5769b211a6ee5f572183597ac7fbec6580",
      "contractAddress": null
    },
    {
      "status": "0x1",
      "cumulativeGasUsed": "0x5fbe9",
      "logs": [
        {
          "address": "0x4f898d5769b211a6ee5f572183597ac7fbec6580",
          "topics": [
            "0xf9a09e2869a1f88523f00504328d7965866201bafe501573db2e114e3375a086",
            "0x000000000000000000000000a8d0dd3e0fff072374ccbd608fef4b6bb71543c2"
          ],
          "data": "0x000000000000000000000000000000000000000000000000000000000000c350",
          "blockHash": "0x5cb5f83b79f263aa381cffd83fbae31ec435fae8331dd4c3a2d4532146f0b633",
          "blockNumber": "0x7a16e9",
          "transactionHash": "0x8d8d4973514cb6d57261764a6ec791ee972c22c74b5feb9e8790f616338ebf7b",
          "transactionIndex": "0x3",
          "logIndex": "0x3",
          "removed": false
        }
      ],
      "logsBloom": "0x00000000000000000000000000000000000000000000000000000000000000000000000200000000000000000040000000000000000000000000000000000000000000000000000000000000000000000000000000000000000000000000000000000000001000000000000000000000000000000000000000000000000000000000000010000000000000000000000000000000000000000000000000000000000000000000000000000000000000000000000000000000000020000000000000000000000000100000000000000000000000000000080000000000000080000000000000020000000000000000000000000000000000000000000000000000",
      "type": "0x0",
      "transactionHash": "0x8d8d4973514cb6d57261764a6ec791ee972c22c74b5feb9e8790f616338ebf7b",
      "transactionIndex": "0x3",
      "blockHash": "0x5cb5f83b79f263aa381cffd83fbae31ec435fae8331dd4c3a2d4532146f0b633",
      "blockNumber": "0x7a16e9",
      "gasUsed": "0xba6d",
      "effectiveGasPrice": "0x0",
      "from": "0xb5f4c8af8723e4caa64767dd12f55b40be527be1",
      "to": "0x4f898d5769b211a6ee5f572183597ac7fbec6580",
      "contractAddress": null
    },
    {
      "status": "0x1",
      "cumulativeGasUsed": "0x6b64a",
      "logs": [
        {
          "address": "0x4f898d5769b211a6ee5f572183597ac7fbec6580",
          "topics": [
            "0xf9a09e2869a1f88523f00504328d7965866201bafe501573db2e114e3375a086",
            "0x0000000000000000000000007679653255d0128f7553945a917a636c3ed2f7eb"
          ],
          "data": "0x0000000000000000000000000000000000000000000000000000000000000064",
          "blockHash": "0x5cb5f83b79f263aa381cffd83fbae31ec435fae8331dd4c3a2d4532146f0b633",
          "blockNumber": "0x7a16e9",
          "transactionHash": "0x8ee269d6cd5a0ce2de6f93d321a4ee50d55b43b75785a0ef7f5e57e6f7a1e123",
          "transactionIndex": "0x4",
          "logIndex": "0x4",
          "removed": false
        }
      ],
      "logsBloom": "0x00000000000000000000000000000000000000000000000000000000000000000000000200000000000000000040000000000000000000000000000000000000000000000000000000000000000000000000000000000000000000000000000400000000000000000000000000000000000000000000000000000000000000000000000010000000000000000000000000000000000000000000000000000000000000000000000000000000008000000000000000000000000000000000000000000000000000000000000000000000000000080000080000000000000080000000000000020000000000000000000000000000000000000000000000000000",
      "type": "0x0",
      "transactionHash": "0x8ee269d6cd5a0ce2de6f93d321a4ee50d55b43b75785a0ef7f5e57e6f7a1e123",
      "transactionIndex": "0x4",
      "blockHash": "0x5cb5f83b79f263aa381cffd83fbae31ec435fae8331dd4c3a2d4532146f0b633",
      "blockNumber": "0x7a16e9",
      "gasUsed": "0xba61",
      "effectiveGasPrice": "0x0",
      "from": "0xb5f4c8af8723e4caa64767dd12f55b40be527be1",
      "to": "0x4f898d5769b211a6ee5f572183597ac7fbec6580",
      "contractAddress": null
    },
    {
      "status": "0x1",
      "cumulativeGasUsed": "0x2f1b09",
      "logs": [
        {
          "address": "0xfd31f95a3ec059d462d34499f07488e06c77d3bf",
          "topics": [
            "0x8be0079c531659141344cd1fd0a4f28419497f9722a3daafe3b4186f6b6457e0",
            "0x0000000000000000000000000000000000000000000000000000000000000000",
            "0x000000000000000000000000b5f4c8af8723e4caa64767dd12f55b40be527be1"
          ],
          "data": "0x",
          "blockHash": "0x5cb5f83b79f263aa381cffd83fbae31ec435fae8331dd4c3a2d4532146f0b633",
          "blockNumber": "0x7a16e9",
          "transactionHash": "0xb81b3f6bd26e0110ae461ab1bdf319975f852c2345f8fd8e4331bb15473c8ab3",
          "transactionIndex": "0x5",
          "logIndex": "0x5",
          "removed": false
        }
      ],
      "logsBloom": "0x00000000000000000000000000000000000000000000000000800000000000000000000000000000000000000000000000000000000000000000000000000000000000000000000000000000000000000003000000000000000000000000000000000000020000000000000000000800100000000000000000000000000000400000000000000000000000000000000000000000000000000000000000000000000000000000000000000000000000000000000000000000000000080000000000000000000000000000000000000000000000000400000000008000000020000000000000000000000000000000000000000000000000200000000000000000",
      "type": "0x0",
      "transactionHash": "0xb81b3f6bd26e0110ae461ab1bdf319975f852c2345f8fd8e4331bb15473c8ab3",
      "transactionIndex": "0x5",
      "blockHash": "0x5cb5f83b79f263aa381cffd83fbae31ec435fae8331dd4c3a2d4532146f0b633",
      "blockNumber": "0x7a16e9",
      "gasUsed": "0x2864bf",
      "effectiveGasPrice": "0x0",
      "from": "0xb5f4c8af8723e4caa64767dd12f55b40be527be1",
      "to": null,
      "contractAddress": "0xfd31f95a3ec059d462d34499f07488e06c77d3bf"
    },
    {
      "status": "0x1",
      "cumulativeGasUsed": "0x2fe48a",
      "logs": [
        {
          "address": "0x916e1af7b6be4dc5dad63976e21ce70aac825b0e",
          "topics": [
            "0xddf252ad1be2c89b69c2b068fc378daa952ba7f163c4a11628f55a4df523b3ef",
            "0x000000000000000000000000b5f4c8af8723e4caa64767dd12f55b40be527be1",
            "0x000000000000000000000000fd31f95a3ec059d462d34499f07488e06c77d3bf"
          ],
          "data": "0x000000000000000000000000000000000000000000004a1d89bb94865ec00000",
          "blockHash": "0x5cb5f83b79f263aa381cffd83fbae31ec435fae8331dd4c3a2d4532146f0b633",
          "blockNumber": "0x7a16e9",
          "transactionHash": "0xe4d5adceb2b88f1d88f3c67870727d5d4317038e5851953e92c8eb1f96007b3b",
          "transactionIndex": "0x6",
          "logIndex": "0x6",
          "removed": false
        }
      ],
      "logsBloom": "0x00000000000000000000000000000080000000000000000000000000000000000000000000000000000000000000000000000000000000000000000000000000000000000000000000000008000000000000000000000000000000800000000000000000000400000000000000000000100000000000000000000010000000000000000000000000000000000000000000000000000000000000000000000000000000000000200000000000000000000200000000000000000000000000000000000002000000000000000000000800000000000400000000008000000000000000000000000000000000000000000000000000000000000000000000000000",
      "type": "0x0",
      "transactionHash": "0xe4d5adceb2b88f1d88f3c67870727d5d4317038e5851953e92c8eb1f96007b3b",
      "transactionIndex": "0x6",
      "blockHash": "0x5cb5f83b79f263aa381cffd83fbae31ec435fae8331dd4c3a2d4532146f0b633",
      "blockNumber": "0x7a16e9",
      "gasUsed": "0xc981",
      "effectiveGasPrice": "0x0",
      "from": "0xb5f4c8af8723e4caa64767dd12f55b40be527be1",
      "to": "0x916e1af7b6be4dc5dad63976e21ce70aac825b0e",
      "contractAddress": null
    },
    {
      "status": "0x1",
      "cumulativeGasUsed": "0x307367",
      "logs": [
        {
          "address": "0x23ba554ea54a08723aa901c590b29bfbe0da7748",
          "topics": [
            "0xddf252ad1be2c89b69c2b068fc378daa952ba7f163c4a11628f55a4df523b3ef",
            "0x000000000000000000000000b5f4c8af8723e4caa64767dd12f55b40be527be1",
            "0x000000000000000000000000fd31f95a3ec059d462d34499f07488e06c77d3bf"
          ],
          "data": "0x000000000000000000000000000000000000000000002a5a058fc295ed000000",
          "blockHash": "0x5cb5f83b79f263aa381cffd83fbae31ec435fae8331dd4c3a2d4532146f0b633",
          "blockNumber": "0x7a16e9",
          "transactionHash": "0xc1220e873fb125797877fb5ef27727a7f9f67bb4d4a151dffd6d481c401e38ad",
          "transactionIndex": "0x7",
          "logIndex": "0x7",
          "removed": false
        }
      ],
      "logsBloom": "0x00000000000000000000000000000000000000000000000000000000000000000000000000000000000000000000000000000000000000000000000000000000000000000000000000000008000000000000000000000000000000000000000000000000000400000000000000000000100000000000000000000010000000000000000000000001000000000040000000000000000000000000000000000000000000000000200000000000000000000000000000000000000000000000000000000002000000000000000000000800000000000400000000048000000000000000000000000000000000000000000000000000000000000000000000000000",
      "type": "0x0",
      "transactionHash": "0xc1220e873fb125797877fb5ef27727a7f9f67bb4d4a151dffd6d481c401e38ad",
      "transactionIndex": "0x7",
      "blockHash": "0x5cb5f83b79f263aa381cffd83fbae31ec435fae8331dd4c3a2d4532146f0b633",
      "blockNumber": "0x7a16e9",
      "gasUsed": "0x8edd",
      "effectiveGasPrice": "0x0",
      "from": "0xb5f4c8af8723e4caa64767dd12f55b40be527be1",
      "to": "0x23ba554ea54a08723aa901c590b29bfbe0da7748",
      "contractAddress": null
    },
    {
      "status": "0x1",
      "cumulativeGasUsed": "0x310250",
      "logs": [
        {
          "address": "0xa8d0dd3e0fff072374ccbd608fef4b6bb71543c2",
          "topics": [
            "0xddf252ad1be2c89b69c2b068fc378daa952ba7f163c4a11628f55a4df523b3ef",
            "0x000000000000000000000000b5f4c8af8723e4caa64767dd12f55b40be527be1",
            "0x000000000000000000000000fd31f95a3ec059d462d34499f07488e06c77d3bf"
          ],
          "data": "0x000000000000000000000000000000000000000000000a968163f0a57b400000",
          "blockHash": "0x5cb5f83b79f263aa381cffd83fbae31ec435fae8331dd4c3a2d4532146f0b633",
          "blockNumber": "0x7a16e9",
          "transactionHash": "0xf8b6ff189dd624e7e908db37264a8d4bcd857e7587971060cda882c2a120d100",
          "transactionIndex": "0x8",
          "logIndex": "0x8",
          "removed": false
        }
      ],
      "logsBloom": "0x00000000000000000000000000000000000000000000000000000000000000000000000000000000000000000000000000000000000000000000000000000800000000000000000000000008000000000000000000000000000000000000000000000000000400000000000000000000100000000000000000000010000000100000000000000000000000000000000000000000000000000000000000000000000000000000200000000000000000000000000000000000000000000000000000000002000000000000000000000800000000000400000000008000000000000000000000000000000000000000002000000000000000000000000000000000",
      "type": "0x0",
      "transactionHash": "0xf8b6ff189dd624e7e908db37264a8d4bcd857e7587971060cda882c2a120d100",
      "transactionIndex": "0x8",
      "blockHash": "0x5cb5f83b79f263aa381cffd83fbae31ec435fae8331dd4c3a2d4532146f0b633",
      "blockNumber": "0x7a16e9",
      "gasUsed": "0x8ee9",
      "effectiveGasPrice": "0x0",
      "from": "0xb5f4c8af8723e4caa64767dd12f55b40be527be1",
      "to": "0xa8d0dd3e0fff072374ccbd608fef4b6bb71543c2",
      "contractAddress": null
    },
    {
      "status": "0x1",
      "cumulativeGasUsed": "0x319109",
      "logs": [
        {
          "address": "0x7679653255d0128f7553945a917a636c3ed2f7eb",
          "topics": [
            "0xddf252ad1be2c89b69c2b068fc378daa952ba7f163c4a11628f55a4df523b3ef",
            "0x000000000000000000000000b5f4c8af8723e4caa64767dd12f55b40be527be1",
            "0x000000000000000000000000fd31f95a3ec059d462d34499f07488e06c77d3bf"
          ],
          "data": "0x000000000000000000000000000000000000000000000000000000174876e800",
          "blockHash": "0x5cb5f83b79f263aa381cffd83fbae31ec435fae8331dd4c3a2d4532146f0b633",
          "blockNumber": "0x7a16e9",
          "transactionHash": "0xcff21f3de86d9c30c9a61b2e41648cd2e28bf7cf7f61fd178a14d02e3ab3ef1e",
          "transactionIndex": "0x9",
          "logIndex": "0x9",
          "removed": false
        }
      ],
      "logsBloom": "0x00000000000000000000000000000000000000000000000000000000000000000000000000000000000000000000000000000000000000000000000000000000000000000000000000000008000000000000000000000000000000000000000000000000000400000000000000000000100000000000000000000010000000000000000000000000000000000000000000000000000000000000000000000000000004000000200000000000000000000000000000000000000000000000000000000002000000000010000000000800000000000400000000008020000000000000000000000000000000000000000000000000000000000000000000000000",
      "type": "0x0",
      "transactionHash": "0xcff21f3de86d9c30c9a61b2e41648cd2e28bf7cf7f61fd178a14d02e3ab3ef1e",
      "transactionIndex": "0x9",
      "blockHash": "0x5cb5f83b79f263aa381cffd83fbae31ec435fae8331dd4c3a2d4532146f0b633",
      "blockNumber": "0x7a16e9",
      "gasUsed": "0x8eb9",
      "effectiveGasPrice": "0x0",
      "from": "0xb5f4c8af8723e4caa64767dd12f55b40be527be1",
      "to": "0x7679653255d0128f7553945a917a636c3ed2f7eb",
      "contractAddress": null
    },
    {
      "status": "0x1",
      "cumulativeGasUsed": "0x35a5e2",
      "logs": [
        {
          "address": "0xfd31f95a3ec059d462d34499f07488e06c77d3bf",
          "topics": [
            "0x6222cf56236a989b8097d166ab6ba81a3320fc872d2977743c90d3456fda4730",
            "0x000000000000000000000000916e1af7b6be4dc5dad63976e21ce70aac825b0e"
          ],
          "data": "0x0000000000000000000000000000000000000000000000000000000000000060000000000000000000000000000000000000000000004a1d89bb94865ec000000000000000000000000000000000000000000000000000000000000826299e00000000000000000000000000000000000000000000000000000000000000000b424f4e442d474f562d364d000000000000000000000000000000000000000000",
          "blockHash": "0x5cb5f83b79f263aa381cffd83fbae31ec435fae8331dd4c3a2d4532146f0b633",
          "blockNumber": "0x7a16e9",
          "transactionHash": "0xa125b2abd60b56cd8d2e7511e6d5abe39862c2fc399ce5ac69bc820e62cbe28c",
          "transactionIndex": "0xa",
          "logIndex": "0xa",
          "removed": false
        }
      ],
      "logsBloom": "0x00020000000000000000000000000000000000000000000000000000000000000000000000000000000000000000000000000000000000000000000000000000000000000000000000000000000000000002000000000000000000000000000000000000000000000000000000000000000000000000000000000000000000000800000000001000000000000000000000010000000000000000000000000000000000000000000000000000000000000000000000000000000000080000000000000000000000000000100000000000000000000000000000000000000000000000000000000000000000000000000000080000000000200000000000000000",
      "type": "0x0",
      "transactionHash": "0xa125b2abd60b56cd8d2e7511e6d5abe39862c2fc399ce5ac69bc820e62cbe28c",
      "transactionIndex": "0xa",
      "blockHash": "0x5cb5f83b79f263aa381cffd83fbae31ec435fae8331dd4c3a2d4532146f0b633",
      "blockNumber": "0x7a16e9",
      "gasUsed": "0x414d9",
      "effectiveGasPrice": "0x0",
      "from": "0xb5f4c8af8723e4caa64767dd12f55b40be527be1",
      "to": "0xfd31f95a3ec059d462d34499f07488e06c77d3bf",
      "contractAddress": null
    },
    {
      "status": "0x1",
      "cumulativeGasUsed": "0x39aa4d",
      "logs": [
        {
          "address": "0xfd31f95a3ec059d462d34499f07488e06c77d3bf",
          "topics": [
            "0x6222cf56236a989b8097d166ab6ba81a3320fc872d2977743c90d3456fda4730",
            "0x00000000000000000000000023ba554ea54a08723aa901c590b29bfbe0da7748"
          ],
          "data": "0x0000000000000000000000000000000000000000000000000000000000000060000000000000000000000000000000000000000000002a5a058fc295ed00000000000000000000000000000000000000000000000000000000000002540be400000000000000000000000000000000000000000000000000000000000000000d524543562d41434d452d39304400000000000000000000000000000000000000",
          "blockHash": "0x5cb5f83b79f263aa381cffd83fbae31ec435fae8331dd4c3a2d4532146f0b633",
          "blockNumber": "0x7a16e9",
          "transactionHash": "0x17a0c54d3f0eab88302d6777505a0cb2091221b480e2309889a25893e9e352ee",
          "transactionIndex": "0xb",
          "logIndex": "0xb",
          "removed": false
        }
      ],
      "logsBloom": "0x00020000000000000000000000000000000000000000000000000000000000000000000000000000000000000000000000000000000000000000000000000000000000000000000000000000000000000002000000000000000000000000000000000000000000000000000000000000000000000000000000000000000000000800000000000000000000000000000000000000000000000000000000000000000000000400000000000000000000000000000000000000000000080000000000000000000000000000100000000000000000000000000020000000000000000000000000000000000000000000000000000000000000200000000000000008",
      "type": "0x0",
      "transactionHash": "0x17a0c54d3f0eab88302d6777505a0cb2091221b480e2309889a25893e9e352ee",
      "transactionIndex": "0xb",
      "blockHash": "0x5cb5f83b79f263aa381cffd83fbae31ec435fae8331dd4c3a2d4532146f0b633",
      "blockNumber": "0x7a16e9",
      "gasUsed": "0x4046b",
      "effectiveGasPrice": "0x0",
      "from": "0xb5f4c8af8723e4caa64767dd12f55b40be527be1",
      "to": "0xfd31f95a3ec059d462d34499f07488e06c77d3bf",
      "contractAddress": null
    },
    {
      "status": "0x1",
      "cumulativeGasUsed": "0x3de0fe",
      "logs": [
        {
          "address": "0xfd31f95a3ec059d462d34499f07488e06c77d3bf",
          "topics": [
            "0x6222cf56236a989b8097d166ab6ba81a3320fc872d2977743c90d3456fda4730",
            "0x000000000000000000000000a8d0dd3e0fff072374ccbd608fef4b6bb71543c2"
          ],
          "data": "0x0000000000000000000000000000000000000000000000000000000000000060000000000000000000000000000000000000000000000a968163f0a57b400000000000000000000000000000000000000000000000000000000000009502f900000000000000000000000000000000000000000000000000000000000000000d524543562d424554412d33304400000000000000000000000000000000000000",
          "blockHash": "0x5cb5f83b79f263aa381cffd83fbae31ec435fae8331dd4c3a2d4532146f0b633",
          "blockNumber": "0x7a16e9",
          "transactionHash": "0xb2e55c2bcf2cd3d04c7881b0a1601e3903e2f7d6d6c69966b70ffe0d204c4eb8",
          "transactionIndex": "0xc",
          "logIndex": "0xc",
          "removed": false
        }
      ],
      "logsBloom": "0x00020000000000000000000000000000000000000000000000000000000000000000000000000000000000000000000000000000000000000000000000000000000000000000000000000000000000000002000000000000000000000000000000000000001000000000000000000000000000000000000000000000000000000800000000000000000000000000000000000000000000000000000000000000000000000000000000000000000000000000000000000000000020080000000000000000000000100000100000000000000000000000000000000000000000000000000000000000000000000000000000000000000000200000000000000000",
      "type": "0x0",
      "transactionHash": "0xb2e55c2bcf2cd3d04c7881b0a1601e3903e2f7d6d6c69966b70ffe0d204c4eb8",
      "transactionIndex": "0xc",
      "blockHash": "0x5cb5f83b79f263aa381cffd83fbae31ec435fae8331dd4c3a2d4532146f0b633",
      "blockNumber": "0x7a16e9",
      "gasUsed": "0x436b1",
      "effectiveGasPrice": "0x0",
      "from": "0xb5f4c8af8723e4caa64767dd12f55b40be527be1",
      "to": "0xfd31f95a3ec059d462d34499f07488e06c77d3bf",
      "contractAddress": null
    },
    {
      "status": "0x1",
      "cumulativeGasUsed": "0x418d71",
      "logs": [
        {
          "address": "0xfd31f95a3ec059d462d34499f07488e06c77d3bf",
          "topics": [
            "0x6222cf56236a989b8097d166ab6ba81a3320fc872d2977743c90d3456fda4730",
            "0x0000000000000000000000007679653255d0128f7553945a917a636c3ed2f7eb"
          ],
          "data": "0x0000000000000000000000000000000000000000000000000000000000000060000000000000000000000000000000000000000000000000000000174876e8000000000000000000000000000000000000000000000000000000000000989680000000000000000000000000000000000000000000000000000000000000000b535441424c452d55534472000000000000000000000000000000000000000000",
          "blockHash": "0x5cb5f83b79f263aa381cffd83fbae31ec435fae8331dd4c3a2d4532146f0b633",
          "blockNumber": "0x7a16e9",
          "transactionHash": "0xbadb2e50ec1ab9c983e4eb1fd8bdf83af8c6ac6da9ddcf385ff5a767e73e0e41",
          "transactionIndex": "0xd",
          "logIndex": "0xd",
          "removed": false
        }
      ],
      "logsBloom": "0x00020000000000000000000000000000000000000000000000000000000000000000000000000000000000000000000000000000000000000000000000000000000000000000000000000000000000000002000000000000000000000000000400000000000000000000000000000000000000000000000000000000000000000800000000000000000000000000000000000000000000000000000000000000000000000000000000000000008000000000000000000000000000080000000000000000000000000000100000000000000000080000000000000000000000000000000000000000000000000000000000000000000000200000000000000000",
      "type": "0x0",
      "transactionHash": "0xbadb2e50ec1ab9c983e4eb1fd8bdf83af8c6ac6da9ddcf385ff5a767e73e0e41",
      "transactionIndex": "0xd",
      "blockHash": "0x5cb5f83b79f263aa381cffd83fbae31ec435fae8331dd4c3a2d4532146f0b633",
      "blockNumber": "0x7a16e9",
      "gasUsed": "0x3ac73",
      "effectiveGasPrice": "0x0",
      "from": "0xb5f4c8af8723e4caa64767dd12f55b40be527be1",
      "to": "0xfd31f95a3ec059d462d34499f07488e06c77d3bf",
      "contractAddress": null
    },
    {
      "status": "0x1",
      "cumulativeGasUsed": "0x445daf",
      "logs": [
        {
          "address": "0xfd31f95a3ec059d462d34499f07488e06c77d3bf",
          "topics": [
            "0x479c5957eadd8a1e1f77fcf7d35edd5a1fcdbe3b423b90792c29798b80372794",
            "0x00000000000000000000000024a059519f65659337cdafddc104835c11bcb5ce",
            "0x0000000000000000000000000000000000000000000000000000000000000001"
          ],
          "data": "0x0000000000000000000000000000000000000000000000000000000000000020000000000000000000000000000000000000000000000000000000000000000e4152542d5049434153534f2d3031000000000000000000000000000000000000",
          "blockHash": "0x5cb5f83b79f263aa381cffd83fbae31ec435fae8331dd4c3a2d4532146f0b633",
          "blockNumber": "0x7a16e9",
          "transactionHash": "0x91dbf2aaa3080afcdf2d430d5695607396f5c11254502a2fb4932207db42b2e8",
          "transactionIndex": "0xe",
          "logIndex": "0xe",
          "removed": false
        }
      ],
      "logsBloom": "0x00000000000000000000000000000000000000000000000000000000000000000000000000000000000000000000000000000000000000000002000000040000000000000000000000000000000000000002000000040000000000000000000000080000000000000000000000000000210000000000000000000000100000000000000000000000000000000000000000000000000000000000000000000000000000000000000000000000000000000000000000000000000000080000000000000000000000000000000000000000000000000000000000000000000040004000000000000000000000000000000000000000000000200000000000000000",
      "type": "0x0",
      "transactionHash": "0x91dbf2aaa3080afcdf2d430d5695607396f5c11254502a2fb4932207db42b2e8",
      "transactionIndex": "0xe",
      "blockHash": "0x5cb5f83b79f263aa381cffd83fbae31ec435fae8331dd4c3a2d4532146f0b633",
      "blockNumber": "0x7a16e9",
      "gasUsed": "0x2d03e",
      "effectiveGasPrice": "0x0",
      "from": "0xb5f4c8af8723e4caa64767dd12f55b40be527be1",
      "to": "0xfd31f95a3ec059d462d34499f07488e06c77d3bf",
      "contractAddress": null
    },
    {
      "status": "0x1",
      "cumulativeGasUsed": "0x46eb09",
      "logs": [
        {
          "address": "0xfd31f95a3ec059d462d34499f07488e06c77d3bf",
          "topics": [
            "0x479c5957eadd8a1e1f77fcf7d35edd5a1fcdbe3b423b90792c29798b80372794",
            "0x000000000000000000000000b6ab2e98811bff69fc60fb1cc83a2e043c096247",
            "0x0000000000000000000000000000000000000000000000000000000000000001"
          ],
          "data": "0x0000000000000000000000000000000000000000000000000000000000000020000000000000000000000000000000000000000000000000000000000000000d4152542d574152484f4c2d303100000000000000000000000000000000000000",
          "blockHash": "0x5cb5f83b79f263aa381cffd83fbae31ec435fae8331dd4c3a2d4532146f0b633",
          "blockNumber": "0x7a16e9",
          "transactionHash": "0xea3f2e096d82ce661a4f0a1e8221c38f41e951361749a6f71da0614c6498fd73",
          "transactionIndex": "0xf",
          "logIndex": "0xf",
          "removed": false
        }
      ],
      "logsBloom": "0x00000000000000000000000000000000000000000000000000000000000000000000000000000000000000000000000000000000000000000000000000040000000000000000000000000000000000000002000000040004000000000000000000080008000000000000000000000000010000000000000000000000000000000000000000000000000000000000000000000000000000000000000000000000000000000000000000000002000000000000000000000000000000080000000000000000000000000000000000000000000000000000000000000000000040004000000000000000000000000000000000000000000000200000000000000000",
      "type": "0x0",
      "transactionHash": "0xea3f2e096d82ce661a4f0a1e8221c38f41e951361749a6f71da0614c6498fd73",
      "transactionIndex": "0xf",
      "blockHash": "0x5cb5f83b79f263aa381cffd83fbae31ec435fae8331dd4c3a2d4532146f0b633",
      "blockNumber": "0x7a16e9",
      "gasUsed": "0x28d5a",
      "effectiveGasPrice": "0x0",
      "from": "0xb5f4c8af8723e4caa64767dd12f55b40be527be1",
      "to": "0xfd31f95a3ec059d462d34499f07488e06c77d3bf",
      "contractAddress": null
    }
  ],
  "libraries": [],
  "pending": [],
  "returns": {},
  "timestamp": 1774789406,
  "chain": 800001,
  "commit": "bbdd311"
}