{
  "transactions": [
    {
      "hash": "0x1798cb7fcdb362a14aa4136faa37f54708f11687ffdb5680c561f1dfcaf0622a",
      "transactionType": "CREATE",
      "contractName": "VaultLedger",
      "contractAddress": "0x9a48ea8dd2e2e66a444cbb60a128104ffd673a51",
      "function": null,
      "arguments": [
        "0xb5F4c8Af8723e4cAa64767DD12F55B40Be527BE1"
      ],
      "transaction": {
        "from": "0xb5f4c8af8723e4caa64767dd12f55b40be527be1",
        "gas": "0x23bc9c",
        "value": "0x0",
        "input": "0x60806040523480156200001157600080fd5b506040516200202a3803806200202a8339810160408190526200003491620000c7565b806001600160a01b0381166200006457604051631e4fbdf760e01b81526000600482015260240160405180910390fd5b6200006f8162000077565b5050620000f9565b600080546001600160a01b038381166001600160a01b0319831681178455604051919092169283917f8be0079c531659141344cd1fd0a4f28419497f9722a3daafe3b4186f6b6457e09190a35050565b600060208284031215620000da57600080fd5b81516001600160a01b0381168114620000f257600080fd5b9392505050565b611f2180620001096000396000f3fe608060405234801561001057600080fd5b506004361061010c5760003560e01c8063a3031b771161009d578063a3031b77146101e6578063a596dd6a146101ee578063ce5fd99314610201578063d0b06f5d14610214578063d251c05a1461021d578063d904d11e14610232578063df3681121461023a578063e5a1171214610242578063f2fde38b14610255578063f350b3131461026857600080fd5b80630126c6061461011157806324591d9b1461012c5780632550239b1461014c5780632a755041146101615780633a4516f9146101775780633f0af8ef1461018a578063715018a6146101935780638d40234d1461019b5780638da5cb5b146101ae5780639ff3495b146101bf575b600080fd5b61011961028f565b6040519081526020015b60405180910390f35b61013f61013a3660046114f4565b610309565b604051610123919061150d565b61015f61015a36600461158f565b610333565b005b6101696104bf565b604051610123929190611722565b61015f61018536600461181d565b6108cc565b61011960055481565b61015f610adf565b61015f6101a9366004611886565b610af3565b6000546001600160a01b031661013f565b6101d26101cd3660046114f4565b610cf2565b604051610123989796959493929190611906565b600754610119565b61015f6101fc3660046119a8565b610dd2565b61011961020f3660046114f4565b610fc9565b61011960065481565b610225610fea565b6040516101239190611ad0565b600154610119565b600354610119565b61015f610250366004611b89565b61115d565b61015f610263366004611be3565b611268565b61027b610276366004611be3565b6112a6565b604051610123989796959493929190611c05565b6000805b60015481101561030557600060026000600184815481106102b6576102b6611c66565b60009182526020808320909101546001600160a01b031683528201929092526040019020600681015490915060ff16156102fc5760038101546102f99084611c92565b92505b50600101610293565b5090565b6001818154811061031957600080fd5b6000918252602090912001546001600160a01b0316905081565b61033b611383565b600061034561028f565b905060076040518060e0016040528042815260200189600381111561036c5761036c611a98565b815260200188888080601f016020809104026020016040519081016040528093929190818152602001838380828437600092018290525093855250505060208083018990526040830186905260ff88166060840152861515608090930192909252835460018181018655948252908290208351600690920201908155908201518184018054939492939192909160ff19169083600381111561041057610410611a98565b0217905550604082015160028201906104299082611d46565b50606082015160038201556080820151600482015560a08201516005909101805460c09093015115156101000261ffff1990931660ff9092169190911791909117905560075461047b90600190611e05565b7ff546073462a2c942b57ddbde6175143e610f20de1410e6c09f9d200845eaedc78883856040516104ae93929190611e18565b60405180910390a250505050505050565b60015460609081906001600160401b038111156104de576104de611ca5565b60405190808252806020026020018201604052801561056857816020015b61055560405180610100016040528060006001600160a01b03168152602001606081526020016000815260200160008152602001600060ff168152602001600060ff168152602001600081526020016000151581525090565b8152602001906001900390816104fc5790505b50915060005b6001548110156106d357600260006001838154811061058f5761058f611c66565b60009182526020808320909101546001600160a01b0390811684528382019490945260409283019091208251610100810190935280549093168252600183018054929392918401916105e090611cbb565b80601f016020809104026020016040519081016040528092919081815260200182805461060c90611cbb565b80156106595780601f1061062e57610100808354040283529160200191610659565b820191906000526020600020905b81548152906001019060200180831161063c57829003601f168201915b50505091835250506002820154602082015260038201546040820152600482015460ff808216606084015261010090910481166080830152600583015460a0830152600690920154909116151560c09091015283518490839081106106c0576106c0611c66565b602090810291909101015260010161056e565b506003546001600160401b038111156106ee576106ee611ca5565b60405190808252806020026020018201604052801561075e57816020015b60408051610100810182526000808252602080830182905260609383018490529282018190526080820181905260a0820181905260c0820181905260e0820152825260001990920191018161070c5790505b50905060005b6003548110156108c757600460006003838154811061078557610785611c66565b60009182526020808320909101548352828101939093526040918201902081516101008101835281546001600160a01b0316815260018201549381019390935260028101805491928401916107d990611cbb565b80601f016020809104026020016040519081016040528092919081815260200182805461080590611cbb565b80156108525780601f1061082757610100808354040283529160200191610852565b820191906000526020600020905b81548152906001019060200180831161083557829003601f168201915b50505091835250506003820154602082015260049091015460ff8082161515604084015261010082048116606084015262010000820481166080840152630100000090910416151560a09091015282518390839081106108b4576108b4611c66565b6020908102919091010152600101610764565b509091565b6108d4611383565b60006108e087876113b0565b600081815260046020819052604090912001549091506301000000900460ff16156109265760405162461bcd60e51b815260040161091d90611e3c565b60405180910390fd5b600380546001810182556000919091527fc2575a0e9e593c00f959f8c92f12db2869c3395a3b0502d05e2516446f71f85b0181905560408051610100810182526001600160a01b038916815260208181018990528251601f8801829004820281018201845287815291928301919088908890819084018382808284376000920182905250938552505050602080830187905260408084018390526060840183905260ff87166080850152600160a09094018490528583526004825291829020845181546001600160a01b0319166001600160a01b0390911617815590840151928101929092558201516002820190610a1e9082611d46565b506060820151600382015560808201516004909101805460a084015160c085015160e09095015161ffff1990921693151561ff0019169390931761010060ff948516021763ffff0000191662010000939094169290920263ff00000019169290921763010000009115159190910217905560405186906001600160a01b038916907f479c5957eadd8a1e1f77fcf7d35edd5a1fcdbe3b423b90792c29798b8037279490610ace9089908990611e68565b60405180910390a350505050505050565b610ae7611383565b610af160006113f3565b565b610afb611383565b6001600160a01b03871660009081526002602052604090206006015460ff1615610b375760405162461bcd60e51b815260040161091d90611e3c565b6001805480820182556000919091527fb10e2d527612073b26eecdfd717e6a320cf44b4afac2b0732d9fcbe2b7fa0cf60180546001600160a01b0319166001600160a01b038916908117909155604080516101008101825291825280516020601f89018190048102820181019092528781528183019189908990819084018382808284376000920182905250938552505050602080830188905260408084018890526060840183905260ff8716608085015260a08401869052600160c09094018490526001600160a01b038c81168452600283529220845181546001600160a01b03191693169290921782558301519091820190610c359082611d46565b50604082810151600283015560608301516003830155608083015160048301805460a086015160ff9081166101000261ffff1990921693169290921791909117905560c0830151600583015560e0909201516006909101805491151560ff1992909216919091179055516001600160a01b038816907ffd288a46d080f2a24ab4d47d4231a7ae3a4538d57a6c1c9afe6807e6c949f6ea90610cd99089908990611e68565b60405180910390a2610ce9611443565b50505050505050565b6004602052600090815260409020805460018201546002830180546001600160a01b03909316939192610d2490611cbb565b80601f0160208091040260200160405190810160405280929190818152602001828054610d5090611cbb565b8015610d9d5780601f10610d7257610100808354040283529160200191610d9d565b820191906000526020600020905b815481529060010190602001808311610d8057829003601f168201915b505050600384015460049094015492939260ff8082169350610100820481169250620100008204811691630100000090041688565b610dda611383565b888714610e1b5760405162461bcd60e51b815260206004820152600f60248201526e0d8cadccee8d040dad2e6dac2e8c6d608b1b604482015260640161091d565b60005b89811015610f62576000600260008d8d85818110610e3e57610e3e611c66565b9050602002016020810190610e539190611be3565b6001600160a01b031681526020810191909152604001600020600681015490915060ff16610eb35760405162461bcd60e51b815260206004820152600d60248201526c1d5b9adb9bdddb88185cdcd95d609a1b604482015260640161091d565b898983818110610ec557610ec5611c66565b6020029190910135600283015550878783818110610ee557610ee5611c66565b6020029190910135600383015550858583818110610f0557610f05611c66565b9050602002016020810190610f1a9190611e97565b8160040160016101000a81548160ff021916908360ff160217905550838383818110610f4857610f48611c66565b602002919091013560059092019190915550600101610e1e565b50610f6b611443565b610f7361028f565b60058190554260068190556040517fadc2f4e849f9fb6479b74a2a01f529e3cad1326fb81f633a131475aeeb135ab692610fb592908252602082015260400190565b60405180910390a150505050505050505050565b60038181548110610fd957600080fd5b600091825260209091200154905081565b6060610ff4611383565b6007805480602002602001604051908101604052809291908181526020016000905b8282101561115457838290600052602060002090600602016040518060e0016040529081600082015481526020016001820160009054906101000a900460ff16600381111561106757611067611a98565b600381111561107857611078611a98565b815260200160028201805461108c90611cbb565b80601f01602080910402602001604051908101604052809291908181526020018280546110b890611cbb565b80156111055780601f106110da57610100808354040283529160200191611105565b820191906000526020600020905b8154815290600101906020018083116110e857829003601f168201915b505050918352505060038201546020808301919091526004830154604083015260059092015460ff80821660608401526101009091041615156080909101529082526001929092019101611016565b50505050905090565b611165611383565b600061117187876113b0565b600081815260046020819052604090912090810154919250906301000000900460ff166111ce5760405162461bcd60e51b815260206004820152600b60248201526a1d5b9adb9bdddb881b999d60aa1b604482015260640161091d565b6003810186905560048101805460ff858116620100000262ff0000199188166101000261ff00198a15151661ffff1990941693909317929092171617905560405187906001600160a01b038a16907fd9328d9939a830428cdadb78f015c5daa624d699a18aaab237107198cd6f922290611256908a908a909182521515602082015260400190565b60405180910390a35050505050505050565b611270611383565b6001600160a01b03811661129a576000604051631e4fbdf760e01b815260040161091d919061150d565b6112a3816113f3565b50565b600260205260009081526040902080546001820180546001600160a01b0390921692916112d290611cbb565b80601f01602080910402602001604051908101604052809291908181526020018280546112fe90611cbb565b801561134b5780601f106113205761010080835404028352916020019161134b565b820191906000526020600020905b81548152906001019060200180831161132e57829003601f168201915b5050505060028301546003840154600485015460058601546006909601549495929491935060ff808216936101009092048116921688565b6000546001600160a01b03163314610af1573360405163118cdaa760e01b815260040161091d919061150d565b6040516001600160601b0319606084901b166020820152603481018290526000906054016040516020818303038152906040528051906020012090505b92915050565b600080546001600160a01b038381166001600160a01b0319831681178455604051919092169283917f8be0079c531659141344cd1fd0a4f28419497f9722a3daafe3b4186f6b6457e09190a35050565b600061144d61028f565b90508060000361145a5750565b60005b6001548110156114f0576000600260006001848154811061148057611480611c66565b60009182526020808320909101546001600160a01b031683528201929092526040019020600681015490915060ff16156114e75782816003015460646114c69190611eb2565b6114d09190611ec9565b60048201805460ff191660ff929092169190911790555b5060010161145d565b5050565b60006020828403121561150657600080fd5b5035919050565b6001600160a01b0391909116815260200190565b60008083601f84011261153357600080fd5b5081356001600160401b0381111561154a57600080fd5b60208301915083602082850101111561156257600080fd5b9250929050565b803560ff8116811461157a57600080fd5b919050565b8035801515811461157a57600080fd5b60008060008060008060a087890312156115a857600080fd5b8635600481106115b757600080fd5b955060208701356001600160401b038111156115d257600080fd5b6115de89828a01611521565b909650945050604087013592506115f760608801611569565b91506116056080880161157f565b90509295509295509295565b6000815180845260005b818110156116375760208185018101518683018201520161161b565b506000602082860101526020601f19601f83011685010191505092915050565b600082825180855260208086019550808260051b84010181860160005b8481101561171557858303601f19018952815180516001600160a01b03168452848101518585015260408082015161010082870181905291906116b983880182611611565b9250505060608083015181870152506080808301511515818701525060a0808301516116e98288018260ff169052565b505060c08281015160ff169086015260e091820151151591909401529783019790830190600101611674565b5090979650505050505050565b60006040808301604084528086518083526060925060608601915060608160051b8701016020808a0160005b848110156117e657898403605f19018652815180516001600160a01b03168552838101516101008587018190529061178882880182611611565b915050898201518a8701528882015189870152608060ff8184015116818801525060a0808301516117bd8289018260ff169052565b505060c0828101519087015260e09182015115159190950152948201949082019060010161174e565b5050878203908801526117f98189611657565b9998505050505050505050565b80356001600160a01b038116811461157a57600080fd5b60008060008060008060a0878903121561183657600080fd5b61183f87611806565b95506020870135945060408701356001600160401b0381111561186157600080fd5b61186d89828a01611521565b9095509350506060870135915061160560808801611569565b600080600080600080600060c0888a0312156118a157600080fd5b6118aa88611806565b965060208801356001600160401b038111156118c557600080fd5b6118d18a828b01611521565b90975095505060408801359350606088013592506118f160808901611569565b915060a0880135905092959891949750929550565b6001600160a01b038916815260208101889052610100604082018190526000906119328382018a611611565b60608401989098525050931515608085015260ff92831660a0850152911660c0830152151560e0909101529392505050565b60008083601f84011261197657600080fd5b5081356001600160401b0381111561198d57600080fd5b6020830191508360208260051b850101111561156257600080fd5b60008060008060008060008060008060a08b8d0312156119c757600080fd5b8a356001600160401b03808211156119de57600080fd5b6119ea8e838f01611964565b909c509a5060208d0135915080821115611a0357600080fd5b611a0f8e838f01611964565b909a50985060408d0135915080821115611a2857600080fd5b611a348e838f01611964565b909850965060608d0135915080821115611a4d57600080fd5b611a598e838f01611964565b909650945060808d0135915080821115611a7257600080fd5b50611a7f8d828e01611964565b915080935050809150509295989b9194979a5092959850565b634e487b7160e01b600052602160045260246000fd5b60048110611acc57634e487b7160e01b600052602160045260246000fd5b9052565b600060208083018184528085518083526040925060408601915060408160051b87010184880160005b83811015611b7b57603f19898403018552815160e08151855288820151611b228a870182611aae565b50878201518189870152611b3882870182611611565b606084810151908801526080808501519088015260a08085015160ff169088015260c0938401511515939096019290925250509386019390860190600101611af9565b509098975050505050505050565b60008060008060008060c08789031215611ba257600080fd5b611bab87611806565b95506020870135945060408701359350611bc76060880161157f565b9250611bd560808801611569565b915061160560a08801611569565b600060208284031215611bf557600080fd5b611bfe82611806565b9392505050565b6001600160a01b038916815261010060208201819052600090611c2a8382018b611611565b91505087604083015286606083015260ff8616608083015260ff851660a08301528360c083015282151560e08301529998505050505050505050565b634e487b7160e01b600052603260045260246000fd5b634e487b7160e01b600052601160045260246000fd5b808201808211156113ed576113ed611c7c565b634e487b7160e01b600052604160045260246000fd5b600181811c90821680611ccf57607f821691505b602082108103611cef57634e487b7160e01b600052602260045260246000fd5b50919050565b601f821115611d41576000816000526020600020601f850160051c81016020861015611d1e5750805b601f850160051c820191505b81811015611d3d57828155600101611d2a565b5050505b505050565b81516001600160401b03811115611d5f57611d5f611ca5565b611d7381611d6d8454611cbb565b84611cf5565b602080601f831160018114611da85760008415611d905750858301515b600019600386901b1c1916600185901b178555611d3d565b600085815260208120601f198616915b82811015611dd757888601518255948401946001909101908401611db8565b5085821015611df55787850151600019600388901b60f8161c191681555b5050505050600190811b01905550565b818103818111156113ed576113ed611c7c565b60608101611e268286611aae565b8360208301528215156040830152949350505050565b602080825260129082015271185b1c9958591e481c9959da5cdd195c995960721b604082015260600190565b60208152816020820152818360408301376000818301604090810191909152601f909201601f19160101919050565b600060208284031215611ea957600080fd5b611bfe82611569565b80820281158282048414176113ed576113ed611c7c565b600082611ee657634e487b7160e01b600052601260045260246000fd5b50049056fea26469706673582212205a1ca61d2ce22ef066af67b92c4c4b9e2a31c72b9d9dc1ab34af02b8853b1a4464736f6c63430008180033000000000000000000000000b5f4c8af8723e4caa64767dd12f55b40be527be1",
        "nonce": "0x13",
        "chainId": "0xc3501"
      },
      "additionalContracts": [],
      "isFixedGasLimit": false
    },
    {
      "hash": "0x52fde161515a34a5f59b2d1075a02a4e98f673c0b317c390cf2097e72a7cf429",
      "transactionType": "CALL",
      "contractName": "VaultLedger",
      "contractAddress": "0x9a48ea8dd2e2e66a444cbb60a128104ffd673a51",
      "function": "addERC20Asset(address,string,uint256,uint256,uint8,uint256)",
      "arguments": [
        "0x916E1AF7B6be4Dc5DaD63976e21ce70aaC825B0E",
        "BOND-GOV-6M",
        "350000000000000000000000",
        "3500000000",
        "15",
        "420"
      ],
      "transaction": {
        "from": "0xb5f4c8af8723e4caa64767dd12f55b40be527be1",
        "to": "0x9a48ea8dd2e2e66a444cbb60a128104ffd673a51",
        "gas": "0x4dc38",
        "value": "0x0",
        "input": "0x8d40234d000000000000000000000000916e1af7b6be4dc5dad63976e21ce70aac825b0e00000000000000000000000000000000000000000000000000000000000000c0000000000000000000000000000000000000000000004a1d89bb94865ec0000000000000000000000000000000000000000000000000000000000000d09dc300000000000000000000000000000000000000000000000000000000000000000f00000000000000000000000000000000000000000000000000000000000001a4000000000000000000000000000000000000000000000000000000000000000b424f4e442d474f562d364d000000000000000000000000000000000000000000",
        "nonce": "0x14",
        "chainId": "0xc3501"
      },
      "additionalContracts": [],
      "isFixedGasLimit": false
    },
    {
      "hash": "0xab2af933355ea18862bc46019dd2910d2656072d794b77298ab4073e51e2a3b5",
      "transactionType": "CALL",
      "contractName": "VaultLedger",
      "contractAddress": "0x9a48ea8dd2e2e66a444cbb60a128104ffd673a51",
      "function": "addERC20Asset(address,string,uint256,uint256,uint8,uint256)",
      "arguments": [
        "0x23bA554Ea54a08723AA901C590b29bFBe0da7748",
        "RECV-ACME-90D",
        "200000000000000000000000",
        "2000000000",
        "55",
        "1100"
      ],
      "transaction": {
        "from": "0xb5f4c8af8723e4caa64767dd12f55b40be527be1",
        "to": "0x9a48ea8dd2e2e66a444cbb60a128104ffd673a51",
        "gas": "0x50d51",
        "value": "0x0",
        "input": "0x8d40234d00000000000000000000000023ba554ea54a08723aa901c590b29bfbe0da774800000000000000000000000000000000000000000000000000000000000000c0000000000000000000000000000000000000000000002a5a058fc295ed00000000000000000000000000000000000000000000000000000000000000773594000000000000000000000000000000000000000000000000000000000000000037000000000000000000000000000000000000000000000000000000000000044c000000000000000000000000000000000000000000000000000000000000000d524543562d41434d452d39304400000000000000000000000000000000000000",
        "nonce": "0x15",
        "chainId": "0xc3501"
      },
      "additionalContracts": [],
      "isFixedGasLimit": false
    },
    {
      "hash": "0x1a7e7f2afafefcca38db26c8fb9f9d6528c43de50e79948c3c93eaadec16dcb6",
      "transactionType": "CALL",
      "contractName": "VaultLedger",
      "contractAddress": "0x9a48ea8dd2e2e66a444cbb60a128104ffd673a51",
      "function": "addERC20Asset(address,string,uint256,uint256,uint8,uint256)",
      "arguments": [
        "0xa8D0dD3e0FFF072374CcbD608fEf4B6Bb71543C2",
        "RECV-BETA-30D",
        "150000000000000000000000",
        "1500000000",
        "45",
        "800"
      ],
      "transaction": {
        "from": "0xb5f4c8af8723e4caa64767dd12f55b40be527be1",
        "to": "0x9a48ea8dd2e2e66a444cbb60a128104ffd673a51",
        "gas": "0x50af8",
        "value": "0x0",
        "input": "0x8d40234d000000000000000000000000a8d0dd3e0fff072374ccbd608fef4b6bb71543c200000000000000000000000000000000000000000000000000000000000000c0000000000000000000000000000000000000000000001fc3842bd1f071c000000000000000000000000000000000000000000000000000000000000059682f00000000000000000000000000000000000000000000000000000000000000002d0000000000000000000000000000000000000000000000000000000000000320000000000000000000000000000000000000000000000000000000000000000d524543562d424554412d33304400000000000000000000000000000000000000",
        "nonce": "0x16",
        "chainId": "0xc3501"
      },
      "additionalContracts": [],
      "isFixedGasLimit": false
    },
    {
      "hash": "0xdc757d4d6b4d91492e008ca5b0cc302525b60ea08a9c93f1e3d86c23efcfcc92",
      "transactionType": "CALL",
      "contractName": "VaultLedger",
      "contractAddress": "0x9a48ea8dd2e2e66a444cbb60a128104ffd673a51",
      "function": "addERC20Asset(address,string,uint256,uint256,uint8,uint256)",
      "arguments": [
        "0x7679653255d0128F7553945A917a636C3ed2F7eB",
        "STABLE-USDr",
        "200000000000",
        "2000000000",
        "0",
        "0"
      ],
      "transaction": {
        "from": "0xb5f4c8af8723e4caa64767dd12f55b40be527be1",
        "to": "0x9a48ea8dd2e2e66a444cbb60a128104ffd673a51",
        "gas": "0x52e21",
        "value": "0x0",
        "input": "0x8d40234d0000000000000000000000007679653255d0128f7553945a917a636c3ed2f7eb00000000000000000000000000000000000000000000000000000000000000c00000000000000000000000000000000000000000000000000000002e90edd000000000000000000000000000000000000000000000000000000000007735940000000000000000000000000000000000000000000000000000000000000000000000000000000000000000000000000000000000000000000000000000000000000000000000000000000000000000000000000000000000000000000000000b535441424c452d55534472000000000000000000000000000000000000000000",
        "nonce": "0x17",
        "chainId": "0xc3501"
      },
      "additionalContracts": [],
      "isFixedGasLimit": false
    },
    {
      "hash": "0x6989b7a9830ac85ddeeb01ba6f136da730b6b0ea11ef111658c996874e807e7f",
      "transactionType": "CALL",
      "contractName": "VaultLedger",
      "contractAddress": "0x9a48ea8dd2e2e66a444cbb60a128104ffd673a51",
      "function": "addERC721Asset(address,uint256,string,uint256,uint8)",
      "arguments": [
        "0x24a059519f65659337cDafddc104835C11BCb5ce",
        "1",
        "ART-PICASSO-01",
        "5000000000",
        "20"
      ],
      "transaction": {
        "from": "0xb5f4c8af8723e4caa64767dd12f55b40be527be1",
        "to": "0x9a48ea8dd2e2e66a444cbb60a128104ffd673a51",
        "gas": "0x41cf8",
        "value": "0x0",
        "input": "0x3a4516f900000000000000000000000024a059519f65659337cdafddc104835c11bcb5ce000000000000000000000000000000000000000000000000000000000000000100000000000000000000000000000000000000000000000000000000000000a0000000000000000000000000000000000000000000000000000000012a05f2000000000000000000000000000000000000000000000000000000000000000014000000000000000000000000000000000000000000000000000000000000000e4152542d5049434153534f2d3031000000000000000000000000000000000000",
        "nonce": "0x18",
        "chainId": "0xc3501"
      },
      "additionalContracts": [],
      "isFixedGasLimit": false
    },
    {
      "hash": "0x2b714e97f82fd0a8a8030919b2c031b11116141b607334599e5b04b9cd069c8f",
      "transactionType": "CALL",
      "contractName": "VaultLedger",
      "contractAddress": "0x9a48ea8dd2e2e66a444cbb60a128104ffd673a51",
      "function": "addERC721Asset(address,uint256,string,uint256,uint8)",
      "arguments": [
        "0xb6ab2e98811bFf69Fc60Fb1Cc83A2E043C096247",
        "1",
        "ART-WARHOL-01",
        "2500000000",
        "25"
      ],
      "transaction": {
        "from": "0xb5f4c8af8723e4caa64767dd12f55b40be527be1",
        "to": "0x9a48ea8dd2e2e66a444cbb60a128104ffd673a51",
        "gas": "0x38614",
        "value": "0x0",
        "input": "0x3a4516f9000000000000000000000000b6ab2e98811bff69fc60fb1cc83a2e043c096247000000000000000000000000000000000000000000000000000000000000000100000000000000000000000000000000000000000000000000000000000000a0000000000000000000000000000000000000000000000000000000009502f9000000000000000000000000000000000000000000000000000000000000000019000000000000000000000000000000000000000000000000000000000000000d4152542d574152484f4c2d303100000000000000000000000000000000000000",
        "nonce": "0x19",
        "chainId": "0xc3501"
      },
      "additionalContracts": [],
      "isFixedGasLimit": false
    }
  ],
  "receipts": [
    {
      "status": "0x1",
      "cumulativeGasUsed": "0x1b7d65",
      "logs": [
        {
          "address": "0x9a48ea8dd2e2e66a444cbb60a128104ffd673a51",
          "topics": [
            "0x8be0079c531659141344cd1fd0a4f28419497f9722a3daafe3b4186f6b6457e0",
            "0x0000000000000000000000000000000000000000000000000000000000000000",
            "0x000000000000000000000000b5f4c8af8723e4caa64767dd12f55b40be527be1"
          ],
          "data": "0x",
          "blockHash": "0x5e6e42fc47fbeb87e0f4d456fe0c821c03c23abd8fb6542890e2e716fbd026ca",
          "blockNumber": "0x79346e",
          "transactionHash": "0x1798cb7fcdb362a14aa4136faa37f54708f11687ffdb5680c561f1dfcaf0622a",
          "transactionIndex": "0x0",
          "logIndex": "0x0",
          "removed": false
        }
      ],
      "logsBloom": "0x00000000000000000000000000000000000000000000000000800000000000000000000000000000000000000000000000000000000000000000000000000000000000000000000000000000000000200001000000000000000000000000000000000000020000000000000000000800100000004000000000000001000000400000000000000000000000000000000000000000000000000000000000000000000000000000000000000000000000000000000000000000000000000000000000000000000000000000000000000000000000000400000000008000000020000000000000000000000000000000000000000000000000000000000000000000",
      "type": "0x0",
      "transactionHash": "0x1798cb7fcdb362a14aa4136faa37f54708f11687ffdb5680c561f1dfcaf0622a",
      "transactionIndex": "0x0",
      "blockHash": "0x5e6e42fc47fbeb87e0f4d456fe0c821c03c23abd8fb6542890e2e716fbd026ca",
      "blockNumber": "0x79346e",
      "gasUsed": "0x1b7d65",
      "effectiveGasPrice": "0x0",
      "from": "0xb5f4c8af8723e4caa64767dd12f55b40be527be1",
      "to": null,
      "contractAddress": "0x9a48ea8dd2e2e66a444cbb60a128104ffd673a51"
    },
    {
      "status": "0x1",
      "cumulativeGasUsed": "0x1f0231",
      "logs": [
        {
          "address": "0x9a48ea8dd2e2e66a444cbb60a128104ffd673a51",
          "topics": [
            "0xfd288a46d080f2a24ab4d47d4231a7ae3a4538d57a6c1c9afe6807e6c949f6ea",
            "0x000000000000000000000000916e1af7b6be4dc5dad63976e21ce70aac825b0e"
          ],
          "data": "0x0000000000000000000000000000000000000000000000000000000000000020000000000000000000000000000000000000000000000000000000000000000b424f4e442d474f562d364d000000000000000000000000000000000000000000",
          "blockHash": "0x5e6e42fc47fbeb87e0f4d456fe0c821c03c23abd8fb6542890e2e716fbd026ca",
          "blockNumber": "0x79346e",
          "transactionHash": "0x52fde161515a34a5f59b2d1075a02a4e98f673c0b317c390cf2097e72a7cf429",
          "transactionIndex": "0x1",
          "logIndex": "0x1",
          "removed": false
        }
      ],
      "logsBloom": "0x00000000000000000000000000000000000000000000000000000000000000000000000000000000000000000000000000000000000000000000000000000000000000000080000000000000000000200000000000000000000000000000000000000000000000001000000000000000000000004000000000000001000000000000000000001000000000000000000000010000000000000000000000000000000000000000000000000008000000000000000000000000000000000000000000000000000000000000000000000000000000000000000000000000000000000000000000000000000000000000000000080000000000000000000000000000",
      "type": "0x0",
      "transactionHash": "0x52fde161515a34a5f59b2d1075a02a4e98f673c0b317c390cf2097e72a7cf429",
      "transactionIndex": "0x1",
      "blockHash": "0x5e6e42fc47fbeb87e0f4d456fe0c821c03c23abd8fb6542890e2e716fbd026ca",
      "blockNumber": "0x79346e",
      "gasUsed": "0x384cc",
      "effectiveGasPrice": "0x0",
      "from": "0xb5f4c8af8723e4caa64767dd12f55b40be527be1",
      "to": "0x9a48ea8dd2e2e66a444cbb60a128104ffd673a51",
      "contractAddress": null
    },
    {
      "status": "0x1",
      "cumulativeGasUsed": "0x227683",
      "logs": [
        {
          "address": "0x9a48ea8dd2e2e66a444cbb60a128104ffd673a51",
          "topics": [
            "0xfd288a46d080f2a24ab4d47d4231a7ae3a4538d57a6c1c9afe6807e6c949f6ea",
            "0x00000000000000000000000023ba554ea54a08723aa901c590b29bfbe0da7748"
          ],
          "data": "0x0000000000000000000000000000000000000000000000000000000000000020000000000000000000000000000000000000000000000000000000000000000d524543562d41434d452d39304400000000000000000000000000000000000000",
          "blockHash": "0x5e6e42fc47fbeb87e0f4d456fe0c821c03c23abd8fb6542890e2e716fbd026ca",
          "blockNumber": "0x79346e",
          "transactionHash": "0xab2af933355ea18862bc46019dd2910d2656072d794b77298ab4073e51e2a3b5",
          "transactionIndex": "0x2",
          "logIndex": "0x2",
          "removed": false
        }
      ],
      "logsBloom": "0x00000000000000000000000000000000000000000000000000000000000000000000000000000000000000000000000000000000000000000000000000000000000000000080000000000000000000200000000000000000000000000000000000000000000000001000000000000000000000004000000000000001000000000000000000000000000000000000000000000000000000000000000000000000000000000400000000000008000000000000000000000000000000000000000000000000000000000000000000000000000000000000000020000000000000000000000000000000000000000000000000000000000000000000000000000008",
      "type": "0x0",
      "transactionHash": "0xab2af933355ea18862bc46019dd2910d2656072d794b77298ab4073e51e2a3b5",
      "transactionIndex": "0x2",
      "blockHash": "0x5e6e42fc47fbeb87e0f4d456fe0c821c03c23abd8fb6542890e2e716fbd026ca",
      "blockNumber": "0x79346e",
      "gasUsed": "0x37452",
      "effectiveGasPrice": "0x0",
      "from": "0xb5f4c8af8723e4caa64767dd12f55b40be527be1",
      "to": "0x9a48ea8dd2e2e66a444cbb60a128104ffd673a51",
      "contractAddress": null
    },
    {
      "status": "0x1",
      "cumulativeGasUsed": "0x261d27",
      "logs": [
        {
          "address": "0x9a48ea8dd2e2e66a444cbb60a128104ffd673a51",
          "topics": [
            "0xfd288a46d080f2a24ab4d47d4231a7ae3a4538d57a6c1c9afe6807e6c949f6ea",
            "0x000000000000000000000000a8d0dd3e0fff072374ccbd608fef4b6bb71543c2"
          ],
          "data": "0x0000000000000000000000000000000000000000000000000000000000000020000000000000000000000000000000000000000000000000000000000000000d524543562d424554412d33304400000000000000000000000000000000000000",
          "blockHash": "0x5e6e42fc47fbeb87e0f4d456fe0c821c03c23abd8fb6542890e2e716fbd026ca",
          "blockNumber": "0x79346e",
          "transactionHash": "0x1a7e7f2afafefcca38db26c8fb9f9d6528c43de50e79948c3c93eaadec16dcb6",
          "transactionIndex": "0x3",
          "logIndex": "0x3",
          "removed": false
        }
      ],
      "logsBloom": "0x00000000000000000000000000000000000000000000000000000000000000000000000000000000000000000000000000000000000000000000000000000000000000000080000000000000000000200000000000000000000000000000000000000000001000001000000000000000000000004000000000000001000000000000000000000000000000000000000000000000000000000000000000000000000000000000000000000008000000000000000000000000000020000000000000000000000000100000000000000000000000000000000000000000000000000000000000000000000000000000000000000000000000000000000000000000",
      "type": "0x0",
      "transactionHash": "0x1a7e7f2afafefcca38db26c8fb9f9d6528c43de50e79948c3c93eaadec16dcb6",
      "transactionIndex": "0x3",
      "blockHash": "0x5e6e42fc47fbeb87e0f4d456fe0c821c03c23abd8fb6542890e2e716fbd026ca",
      "blockNumber": "0x79346e",
      "gasUsed": "0x3a6a4",
      "effectiveGasPrice": "0x0",
      "from": "0xb5f4c8af8723e4caa64767dd12f55b40be527be1",
      "to": "0x9a48ea8dd2e2e66a444cbb60a128104ffd673a51",
      "contractAddress": null
    },
    {
      "status": "0x1",
      "cumulativeGasUsed": "0x29a7e9",
      "logs": [
        {
          "address": "0x9a48ea8dd2e2e66a444cbb60a128104ffd673a51",
          "topics": [
            "0xfd288a46d080f2a24ab4d47d4231a7ae3a4538d57a6c1c9afe6807e6c949f6ea",
            "0x0000000000000000000000007679653255d0128f7553945a917a636c3ed2f7eb"
          ],
          "data": "0x0000000000000000000000000000000000000000000000000000000000000020000000000000000000000000000000000000000000000000000000000000000b535441424c452d55534472000000000000000000000000000000000000000000",
          "blockHash": "0x5e6e42fc47fbeb87e0f4d456fe0c821c03c23abd8fb6542890e2e716fbd026ca",
          "blockNumber": "0x79346e",
          "transactionHash": "0xdc757d4d6b4d91492e008ca5b0cc302525b60ea08a9c93f1e3d86c23efcfcc92",
          "transactionIndex": "0x4",
          "logIndex": "0x4",
          "removed": false
        }
      ],
      "logsBloom": "0x00000000000000000000000000000000000000000000000000000000000000000000000000000000000000000000000000000000000000000000000000000000000000000080000000000000000000200000000000000000000000000000000400000000000000001000000000000000000000004000000000000001000000000000000000000000000000000000000000000000000000000000000000000000000000000000000000000008008000000000000000000000000000000000000000000000000000000000000000000000000000080000000000000000000000000000000000000000000000000000000000000000000000000000000000000000",
      "type": "0x0",
      "transactionHash": "0xdc757d4d6b4d91492e008ca5b0cc302525b60ea08a9c93f1e3d86c23efcfcc92",
      "transactionIndex": "0x4",
      "blockHash": "0x5e6e42fc47fbeb87e0f4d456fe0c821c03c23abd8fb6542890e2e716fbd026ca",
      "blockNumber": "0x79346e",
      "gasUsed": "0x38ac2",
      "effectiveGasPrice": "0x0",
      "from": "0xb5f4c8af8723e4caa64767dd12f55b40be527be1",
      "to": "0x9a48ea8dd2e2e66a444cbb60a128104ffd673a51",
      "contractAddress": null
    },
    {
      "status": "0x1",
      "cumulativeGasUsed": "0x2c77e4",
      "logs": [
        {
          "address": "0x9a48ea8dd2e2e66a444cbb60a128104ffd673a51",
          "topics": [
            "0x479c5957eadd8a1e1f77fcf7d35edd5a1fcdbe3b423b90792c29798b80372794",
            "0x00000000000000000000000024a059519f65659337cdafddc104835c11bcb5ce",
            "0x0000000000000000000000000000000000000000000000000000000000000001"
          ],
          "data": "0x0000000000000000000000000000000000000000000000000000000000000020000000000000000000000000000000000000000000000000000000000000000e4152542d5049434153534f2d3031000000000000000000000000000000000000",
          "blockHash": "0x5e6e42fc47fbeb87e0f4d456fe0c821c03c23abd8fb6542890e2e716fbd026ca",
          "blockNumber": "0x79346e",
          "transactionHash": "0x6989b7a9830ac85ddeeb01ba6f136da730b6b0ea11ef111658c996874e807e7f",
          "transactionIndex": "0x5",
          "logIndex": "0x5",
          "removed": false
        }
      ],
      "logsBloom": "0x00000000000000000000000000000000000000000000000000000000000000000000000000000000000000000000000000000000000000000002000000040000000000000000000000000000000000200000000000040000000000000000000000080000000000000000000000000000210000004000000000000001100000000000000000000000000000000000000000000000000000000000000000000000000000000000000000000000000000000000000000000000000000000000000000000000000000000000000000000000000000000000000000000000000040004000000000000000000000000000000000000000000000000000000000000000",
      "type": "0x0",
      "transactionHash": "0x6989b7a9830ac85ddeeb01ba6f136da730b6b0ea11ef111658c996874e807e7f",
      "transactionIndex": "0x5",
      "blockHash": "0x5e6e42fc47fbeb87e0f4d456fe0c821c03c23abd8fb6542890e2e716fbd026ca",
      "blockNumber": "0x79346e",
      "gasUsed": "0x2cffb",
      "effectiveGasPrice": "0x0",
      "from": "0xb5f4c8af8723e4caa64767dd12f55b40be527be1",
      "to": "0x9a48ea8dd2e2e66a444cbb60a128104ffd673a51",
      "contractAddress": null
    },
    {
      "status": "0x1",
      "cumulativeGasUsed": "0x2f04fb",
      "logs": [
        {
          "address": "0x9a48ea8dd2e2e66a444cbb60a128104ffd673a51",
          "topics": [
            "0x479c5957eadd8a1e1f77fcf7d35edd5a1fcdbe3b423b90792c29798b80372794",
            "0x000000000000000000000000b6ab2e98811bff69fc60fb1cc83a2e043c096247",
            "0x0000000000000000000000000000000000000000000000000000000000000001"
          ],
          "data": "0x0000000000000000000000000000000000000000000000000000000000000020000000000000000000000000000000000000000000000000000000000000000d4152542d574152484f4c2d303100000000000000000000000000000000000000",
          "blockHash": "0x5e6e42fc47fbeb87e0f4d456fe0c821c03c23abd8fb6542890e2e716fbd026ca",
          "blockNumber": "0x79346e",
          "transactionHash": "0x2b714e97f82fd0a8a8030919b2c031b11116141b607334599e5b04b9cd069c8f",
          "transactionIndex": "0x6",
          "logIndex": "0x6",
          "removed": false
        }
      ],
      "logsBloom": "0x00000000000000000000000000000000000000000000000000000000000000000000000000000000000000000000000000000000000000000000000000040000000000000000000000000000000000200000000000040004000000000000000000080008000000000000000000000000010000004000000000000001000000000000000000000000000000000000000000000000000000000000000000000000000000000000000000000002000000000000000000000000000000000000000000000000000000000000000000000000000000000000000000000000000040004000000000000000000000000000000000000000000000000000000000000000",
      "type": "0x0",
      "transactionHash": "0x2b714e97f82fd0a8a8030919b2c031b11116141b607334599e5b04b9cd069c8f",
      "transactionIndex": "0x6",
      "blockHash": "0x5e6e42fc47fbeb87e0f4d456fe0c821c03c23abd8fb6542890e2e716fbd026ca",
      "blockNumber": "0x79346e",
      "gasUsed": "0x28d17",
      "effectiveGasPrice": "0x0",
      "from": "0xb5f4c8af8723e4caa64767dd12f55b40be527be1",
      "to": "0x9a48ea8dd2e2e66a444cbb60a128104ffd673a51",
      "contractAddress": null
    }
  ],
  "libraries": [],
  "pending": [],
  "returns": {},
  "timestamp": 1774731411,
  "chain": 800001,
  "commit": "c05d77b"
}