{
  "transactions": [
    {
      "hash": "0xa9e5c4600e9402a0cbe04f8fa14e61c0bd7a52cd32b53cd12ece1912ac6c400a",
      "transactionType": "CREATE",
      "contractName": "VaultLedger",
      "contractAddress": "0x6da722064c50ed6d25257392c3832c698d3db6f1",
      "function": null,
      "arguments": [
        "0xb5F4c8Af8723e4cAa64767DD12F55B40Be527BE1"
      ],
      "transaction": {
        "from": "0xb5f4c8af8723e4caa64767dd12f55b40be527be1",
        "gas": "0x1e4a1e",
        "value": "0x0",
        "input": "0x60806040523480156200001157600080fd5b5060405162001b3338038062001b338339810160408190526200003491620000c7565b806001600160a01b0381166200006457604051631e4fbdf760e01b81526000600482015260240160405180910390fd5b6200006f8162000077565b5050620000f9565b600080546001600160a01b038381166001600160a01b0319831681178455604051919092169283917f8be0079c531659141344cd1fd0a4f28419497f9722a3daafe3b4186f6b6457e09190a35050565b600060208284031215620000da57600080fd5b81516001600160a01b0381168114620000f257600080fd5b9392505050565b611a2a80620001096000396000f3fe608060405234801561001057600080fd5b50600436106100eb5760003560e01c80639ff3495b116100925780639ff3495b1461018b578063a596dd6a146101b2578063ce5fd993146101c5578063d0b06f5d146101d8578063d904d11e146101e1578063df368112146101e9578063e5a11712146101f1578063f2fde38b14610204578063f350b3131461021757600080fd5b80630126c606146100f057806324591d9b1461010b5780632a7550411461012b5780633a4516f9146101415780633f0af8ef14610156578063715018a61461015f5780638d40234d146101675780638da5cb5b1461017a575b600080fd5b6100f861023e565b6040519081526020015b60405180910390f35b61011e6101193660046111a4565b6102b8565b60405161010291906111bd565b6101336102e2565b6040516101029291906112e2565b61015461014f36600461143b565b6106ef565b005b6100f860055481565b610154610902565b6101546101753660046114b0565b610916565b6000546001600160a01b031661011e565b61019e6101993660046111a4565b610b15565b604051610102989796959493929190611530565b6101546101c03660046115d2565b610bf5565b6100f86101d33660046111a4565b610dec565b6100f860065481565b6001546100f8565b6003546100f8565b6101546101ff3660046116c2565b610e0d565b610154610212366004611723565b610f18565b61022a610225366004611723565b610f56565b604051610102989796959493929190611745565b6000805b6001548110156102b45760006002600060018481548110610265576102656117a6565b60009182526020808320909101546001600160a01b031683528201929092526040019020600681015490915060ff16156102ab5760038101546102a890846117d2565b92505b50600101610242565b5090565b600181815481106102c857600080fd5b6000918252602090912001546001600160a01b0316905081565b60015460609081906001600160401b03811115610301576103016117e5565b60405190808252806020026020018201604052801561038b57816020015b61037860405180610100016040528060006001600160a01b03168152602001606081526020016000815260200160008152602001600060ff168152602001600060ff168152602001600081526020016000151581525090565b81526020019060019003908161031f5790505b50915060005b6001548110156104f65760026000600183815481106103b2576103b26117a6565b60009182526020808320909101546001600160a01b039081168452838201949094526040928301909120825161010081019093528054909316825260018301805492939291840191610403906117fb565b80601f016020809104026020016040519081016040528092919081815260200182805461042f906117fb565b801561047c5780601f106104515761010080835404028352916020019161047c565b820191906000526020600020905b81548152906001019060200180831161045f57829003601f168201915b50505091835250506002820154602082015260038201546040820152600482015460ff808216606084015261010090910481166080830152600583015460a0830152600690920154909116151560c09091015283518490839081106104e3576104e36117a6565b6020908102919091010152600101610391565b506003546001600160401b03811115610511576105116117e5565b60405190808252806020026020018201604052801561058157816020015b60408051610100810182526000808252602080830182905260609383018490529282018190526080820181905260a0820181905260c0820181905260e0820152825260001990920191018161052f5790505b50905060005b6003548110156106ea5760046000600383815481106105a8576105a86117a6565b60009182526020808320909101548352828101939093526040918201902081516101008101835281546001600160a01b0316815260018201549381019390935260028101805491928401916105fc906117fb565b80601f0160208091040260200160405190810160405280929190818152602001828054610628906117fb565b80156106755780601f1061064a57610100808354040283529160200191610675565b820191906000526020600020905b81548152906001019060200180831161065857829003601f168201915b50505091835250506003820154602082015260049091015460ff8082161515604084015261010082048116606084015262010000820481166080840152630100000090910416151560a09091015282518390839081106106d7576106d76117a6565b6020908102919091010152600101610587565b509091565b6106f7611033565b60006107038787611060565b600081815260046020819052604090912001549091506301000000900460ff16156107495760405162461bcd60e51b815260040161074090611835565b60405180910390fd5b600380546001810182556000919091527fc2575a0e9e593c00f959f8c92f12db2869c3395a3b0502d05e2516446f71f85b0181905560408051610100810182526001600160a01b038916815260208181018990528251601f8801829004820281018201845287815291928301919088908890819084018382808284376000920182905250938552505050602080830187905260408084018390526060840183905260ff87166080850152600160a09094018490528583526004825291829020845181546001600160a01b0319166001600160a01b039091161781559084015192810192909255820151600282019061084190826118b2565b506060820151600382015560808201516004909101805460a084015160c085015160e09095015161ffff1990921693151561ff0019169390931761010060ff948516021763ffff0000191662010000939094169290920263ff00000019169290921763010000009115159190910217905560405186906001600160a01b038916907f479c5957eadd8a1e1f77fcf7d35edd5a1fcdbe3b423b90792c29798b80372794906108f19089908990611971565b60405180910390a350505050505050565b61090a611033565b61091460006110a3565b565b61091e611033565b6001600160a01b03871660009081526002602052604090206006015460ff161561095a5760405162461bcd60e51b815260040161074090611835565b6001805480820182556000919091527fb10e2d527612073b26eecdfd717e6a320cf44b4afac2b0732d9fcbe2b7fa0cf60180546001600160a01b0319166001600160a01b038916908117909155604080516101008101825291825280516020601f89018190048102820181019092528781528183019189908990819084018382808284376000920182905250938552505050602080830188905260408084018890526060840183905260ff8716608085015260a08401869052600160c09094018490526001600160a01b038c81168452600283529220845181546001600160a01b03191693169290921782558301519091820190610a5890826118b2565b50604082810151600283015560608301516003830155608083015160048301805460a086015160ff9081166101000261ffff1990921693169290921791909117905560c0830151600583015560e0909201516006909101805491151560ff1992909216919091179055516001600160a01b038816907ffd288a46d080f2a24ab4d47d4231a7ae3a4538d57a6c1c9afe6807e6c949f6ea90610afc9089908990611971565b60405180910390a2610b0c6110f3565b50505050505050565b6004602052600090815260409020805460018201546002830180546001600160a01b03909316939192610b47906117fb565b80601f0160208091040260200160405190810160405280929190818152602001828054610b73906117fb565b8015610bc05780601f10610b9557610100808354040283529160200191610bc0565b820191906000526020600020905b815481529060010190602001808311610ba357829003601f168201915b505050600384015460049094015492939260ff8082169350610100820481169250620100008204811691630100000090041688565b610bfd611033565b888714610c3e5760405162461bcd60e51b815260206004820152600f60248201526e0d8cadccee8d040dad2e6dac2e8c6d608b1b6044820152606401610740565b60005b89811015610d85576000600260008d8d85818110610c6157610c616117a6565b9050602002016020810190610c769190611723565b6001600160a01b031681526020810191909152604001600020600681015490915060ff16610cd65760405162461bcd60e51b815260206004820152600d60248201526c1d5b9adb9bdddb88185cdcd95d609a1b6044820152606401610740565b898983818110610ce857610ce86117a6565b6020029190910135600283015550878783818110610d0857610d086117a6565b6020029190910135600383015550858583818110610d2857610d286117a6565b9050602002016020810190610d3d91906119a0565b8160040160016101000a81548160ff021916908360ff160217905550838383818110610d6b57610d6b6117a6565b602002919091013560059092019190915550600101610c41565b50610d8e6110f3565b610d9661023e565b60058190554260068190556040517fadc2f4e849f9fb6479b74a2a01f529e3cad1326fb81f633a131475aeeb135ab692610dd892908252602082015260400190565b60405180910390a150505050505050505050565b60038181548110610dfc57600080fd5b600091825260209091200154905081565b610e15611033565b6000610e218787611060565b600081815260046020819052604090912090810154919250906301000000900460ff16610e7e5760405162461bcd60e51b815260206004820152600b60248201526a1d5b9adb9bdddb881b999d60aa1b6044820152606401610740565b6003810186905560048101805460ff858116620100000262ff0000199188166101000261ff00198a15151661ffff1990941693909317929092171617905560405187906001600160a01b038a16907fd9328d9939a830428cdadb78f015c5daa624d699a18aaab237107198cd6f922290610f06908a908a909182521515602082015260400190565b60405180910390a35050505050505050565b610f20611033565b6001600160a01b038116610f4a576000604051631e4fbdf760e01b815260040161074091906111bd565b610f53816110a3565b50565b600260205260009081526040902080546001820180546001600160a01b039092169291610f82906117fb565b80601f0160208091040260200160405190810160405280929190818152602001828054610fae906117fb565b8015610ffb5780601f10610fd057610100808354040283529160200191610ffb565b820191906000526020600020905b815481529060010190602001808311610fde57829003601f168201915b5050505060028301546003840154600485015460058601546006909601549495929491935060ff808216936101009092048116921688565b6000546001600160a01b03163314610914573360405163118cdaa760e01b815260040161074091906111bd565b6040516001600160601b0319606084901b166020820152603481018290526000906054016040516020818303038152906040528051906020012090505b92915050565b600080546001600160a01b038381166001600160a01b0319831681178455604051919092169283917f8be0079c531659141344cd1fd0a4f28419497f9722a3daafe3b4186f6b6457e09190a35050565b60006110fd61023e565b90508060000361110a5750565b60005b6001548110156111a05760006002600060018481548110611130576111306117a6565b60009182526020808320909101546001600160a01b031683528201929092526040019020600681015490915060ff161561119757828160030154606461117691906119bb565b61118091906119d2565b60048201805460ff191660ff929092169190911790555b5060010161110d565b5050565b6000602082840312156111b657600080fd5b5035919050565b6001600160a01b0391909116815260200190565b6000815180845260005b818110156111f7576020818501810151868301820152016111db565b506000602082860101526020601f19601f83011685010191505092915050565b600082825180855260208086019550808260051b84010181860160005b848110156112d557858303601f19018952815180516001600160a01b0316845284810151858501526040808201516101008287018190529190611279838801826111d1565b9250505060608083015181870152506080808301511515818701525060a0808301516112a98288018260ff169052565b505060c08281015160ff169086015260e091820151151591909401529783019790830190600101611234565b5090979650505050505050565b60006040808301604084528086518083526060925060608601915060608160051b8701016020808a0160005b848110156113a657898403605f19018652815180516001600160a01b031685528381015161010085870181905290611348828801826111d1565b915050898201518a8701528882015189870152608060ff8184015116818801525060a08083015161137d8289018260ff169052565b505060c0828101519087015260e09182015115159190950152948201949082019060010161130e565b5050878203908801526113b98189611217565b9998505050505050505050565b80356001600160a01b03811681146113dd57600080fd5b919050565b60008083601f8401126113f457600080fd5b5081356001600160401b0381111561140b57600080fd5b60208301915083602082850101111561142357600080fd5b9250929050565b803560ff811681146113dd57600080fd5b60008060008060008060a0878903121561145457600080fd5b61145d876113c6565b95506020870135945060408701356001600160401b0381111561147f57600080fd5b61148b89828a016113e2565b909550935050606087013591506114a46080880161142a565b90509295509295509295565b600080600080600080600060c0888a0312156114cb57600080fd5b6114d4886113c6565b965060208801356001600160401b038111156114ef57600080fd5b6114fb8a828b016113e2565b909750955050604088013593506060880135925061151b6080890161142a565b915060a0880135905092959891949750929550565b6001600160a01b0389168152602081018890526101006040820181905260009061155c8382018a6111d1565b60608401989098525050931515608085015260ff92831660a0850152911660c0830152151560e0909101529392505050565b60008083601f8401126115a057600080fd5b5081356001600160401b038111156115b757600080fd5b6020830191508360208260051b850101111561142357600080fd5b60008060008060008060008060008060a08b8d0312156115f157600080fd5b8a356001600160401b038082111561160857600080fd5b6116148e838f0161158e565b909c509a5060208d013591508082111561162d57600080fd5b6116398e838f0161158e565b909a50985060408d013591508082111561165257600080fd5b61165e8e838f0161158e565b909850965060608d013591508082111561167757600080fd5b6116838e838f0161158e565b909650945060808d013591508082111561169c57600080fd5b506116a98d828e0161158e565b915080935050809150509295989b9194979a5092959850565b60008060008060008060c087890312156116db57600080fd5b6116e4876113c6565b955060208701359450604087013593506060870135801515811461170757600080fd5b92506117156080880161142a565b91506114a460a0880161142a565b60006020828403121561173557600080fd5b61173e826113c6565b9392505050565b6001600160a01b03891681526101006020820181905260009061176a8382018b6111d1565b91505087604083015286606083015260ff8616608083015260ff851660a08301528360c083015282151560e08301529998505050505050505050565b634e487b7160e01b600052603260045260246000fd5b634e487b7160e01b600052601160045260246000fd5b8082018082111561109d5761109d6117bc565b634e487b7160e01b600052604160045260246000fd5b600181811c9082168061180f57607f821691505b60208210810361182f57634e487b7160e01b600052602260045260246000fd5b50919050565b602080825260129082015271185b1c9958591e481c9959da5cdd195c995960721b604082015260600190565b601f8211156118ad576000816000526020600020601f850160051c8101602086101561188a5750805b601f850160051c820191505b818110156118a957828155600101611896565b5050505b505050565b81516001600160401b038111156118cb576118cb6117e5565b6118df816118d984546117fb565b84611861565b602080601f83116001811461191457600084156118fc5750858301515b600019600386901b1c1916600185901b1785556118a9565b600085815260208120601f198616915b8281101561194357888601518255948401946001909101908401611924565b50858210156119615787850151600019600388901b60f8161c191681555b5050505050600190811b01905550565b60208152816020820152818360408301376000818301604090810191909152601f909201601f19160101919050565b6000602082840312156119b257600080fd5b61173e8261142a565b808202811582820484141761109d5761109d6117bc565b6000826119ef57634e487b7160e01b600052601260045260246000fd5b50049056fea2646970667358221220268d1115bd8b410bf706459e32df828367c0ca4da916f44122ca9f65c0f1b15e64736f6c63430008180033000000000000000000000000b5f4c8af8723e4caa64767dd12f55b40be527be1",
        "nonce": "0xc",
        "chainId": "0xc3501"
      },
      "additionalContracts": [],
      "isFixedGasLimit": false
    },
    {
      "hash": "0x78fa7da4ae27b895bebeba960fb94549e0f850a56ed87a698607d8cdaad31c49",
      "transactionType": "CALL",
      "contractName": "VaultLedger",
      "contractAddress": "0x6da722064c50ed6d25257392c3832c698d3db6f1",
      "function": "addERC20Asset(address,string,uint256,uint256,uint8,uint256)",
      "arguments": [
        "0x916E1AF7B6be4Dc5DaD63976e21ce70aaC825B0E",
        "BOND-GOV-6M",
        "350000000000000000000000",
        "3500000000",
        "15",
        "420"
      ],
      "transaction": {
        "from": "0xb5f4c8af8723e4caa64767dd12f55b40be527be1",
        "to": "0x6da722064c50ed6d25257392c3832c698d3db6f1",
        "gas": "0x4dc1a",
        "value": "0x0",
        "input": "0x8d40234d000000000000000000000000916e1af7b6be4dc5dad63976e21ce70aac825b0e00000000000000000000000000000000000000000000000000000000000000c0000000000000000000000000000000000000000000004a1d89bb94865ec0000000000000000000000000000000000000000000000000000000000000d09dc300000000000000000000000000000000000000000000000000000000000000000f00000000000000000000000000000000000000000000000000000000000001a4000000000000000000000000000000000000000000000000000000000000000b424f4e442d474f562d364d000000000000000000000000000000000000000000",
        "nonce": "0xd",
        "chainId": "0xc3501"
      },
      "additionalContracts": [],
      "isFixedGasLimit": false
    },
    {
      "hash": "0x848b475815847a131ae47936f7bc1a03f1dd03d27d7a77c1b7cf2d5c3eb010b9",
      "transactionType": "CALL",
      "contractName": "VaultLedger",
      "contractAddress": "0x6da722064c50ed6d25257392c3832c698d3db6f1",
      "function": "addERC20Asset(address,string,uint256,uint256,uint8,uint256)",
      "arguments": [
        "0x23bA554Ea54a08723AA901C590b29bFBe0da7748",
        "RECV-ACME-90D",
        "200000000000000000000000",
        "2000000000",
        "55",
        "1100"
      ],
      "transaction": {
        "from": "0xb5f4c8af8723e4caa64767dd12f55b40be527be1",
        "to": "0x6da722064c50ed6d25257392c3832c698d3db6f1",
        "gas": "0x4c558",
        "value": "0x0",
        "input": "0x8d40234d00000000000000000000000023ba554ea54a08723aa901c590b29bfbe0da774800000000000000000000000000000000000000000000000000000000000000c0000000000000000000000000000000000000000000002a5a058fc295ed00000000000000000000000000000000000000000000000000000000000000773594000000000000000000000000000000000000000000000000000000000000000037000000000000000000000000000000000000000000000000000000000000044c000000000000000000000000000000000000000000000000000000000000000d524543562d41434d452d39304400000000000000000000000000000000000000",
        "nonce": "0xe",
        "chainId": "0xc3501"
      },
      "additionalContracts": [],
      "isFixedGasLimit": false
    },
    {
      "hash": "0xcf0a510b972d8e4f1ecd12a8758f3a8bc72a857dc35b54aae6b5e9e0de7ce62c",
      "transactionType": "CALL",
      "contractName": "VaultLedger",
      "contractAddress": "0x6da722064c50ed6d25257392c3832c698d3db6f1",
      "function": "addERC20Asset(address,string,uint256,uint256,uint8,uint256)",
      "arguments": [
        "0xa8D0dD3e0FFF072374CcbD608fEf4B6Bb71543C2",
        "RECV-BETA-30D",
        "150000000000000000000000",
        "1500000000",
        "45",
        "800"
      ],
      "transaction": {
        "from": "0xb5f4c8af8723e4caa64767dd12f55b40be527be1",
        "to": "0x6da722064c50ed6d25257392c3832c698d3db6f1",
        "gas": "0x50ad9",
        "value": "0x0",
        "input": "0x8d40234d000000000000000000000000a8d0dd3e0fff072374ccbd608fef4b6bb71543c200000000000000000000000000000000000000000000000000000000000000c0000000000000000000000000000000000000000000001fc3842bd1f071c000000000000000000000000000000000000000000000000000000000000059682f00000000000000000000000000000000000000000000000000000000000000002d0000000000000000000000000000000000000000000000000000000000000320000000000000000000000000000000000000000000000000000000000000000d524543562d424554412d33304400000000000000000000000000000000000000",
        "nonce": "0xf",
        "chainId": "0xc3501"
      },
      "additionalContracts": [],
      "isFixedGasLimit": false
    },
    {
      "hash": "0x9287304882f67002e7bcf1656e4cf4d064d188359b473e97bc5a728741f82d6a",
      "transactionType": "CALL",
      "contractName": "VaultLedger",
      "contractAddress": "0x6da722064c50ed6d25257392c3832c698d3db6f1",
      "function": "addERC20Asset(address,string,uint256,uint256,uint8,uint256)",
      "arguments": [
        "0x7679653255d0128F7553945A917a636C3ed2F7eB",
        "STABLE-USDr",
        "200000000000",
        "2000000000",
        "0",
        "0"
      ],
      "transaction": {
        "from": "0xb5f4c8af8723e4caa64767dd12f55b40be527be1",
        "to": "0x6da722064c50ed6d25257392c3832c698d3db6f1",
        "gas": "0x4e456",
        "value": "0x0",
        "input": "0x8d40234d0000000000000000000000007679653255d0128f7553945a917a636c3ed2f7eb00000000000000000000000000000000000000000000000000000000000000c00000000000000000000000000000000000000000000000000000002e90edd000000000000000000000000000000000000000000000000000000000007735940000000000000000000000000000000000000000000000000000000000000000000000000000000000000000000000000000000000000000000000000000000000000000000000000000000000000000000000000000000000000000000000000b535441424c452d55534472000000000000000000000000000000000000000000",
        "nonce": "0x10",
        "chainId": "0xc3501"
      },
      "additionalContracts": [],
      "isFixedGasLimit": false
    },
    {
      "hash": "0xa2b3572301049ef4fb81b3848224fa53c33681ee35a0c4ff0b531af86eed2903",
      "transactionType": "CALL",
      "contractName": "VaultLedger",
      "contractAddress": "0x6da722064c50ed6d25257392c3832c698d3db6f1",
      "function": "addERC721Asset(address,uint256,string,uint256,uint8)",
      "arguments": [
        "0x24a059519f65659337cDafddc104835C11BCb5ce",
        "1",
        "ART-PICASSO-01",
        "5000000000",
        "20"
      ],
      "transaction": {
        "from": "0xb5f4c8af8723e4caa64767dd12f55b40be527be1",
        "to": "0x6da722064c50ed6d25257392c3832c698d3db6f1",
        "gas": "0x3e25a",
        "value": "0x0",
        "input": "0x3a4516f900000000000000000000000024a059519f65659337cdafddc104835c11bcb5ce000000000000000000000000000000000000000000000000000000000000000100000000000000000000000000000000000000000000000000000000000000a0000000000000000000000000000000000000000000000000000000012a05f2000000000000000000000000000000000000000000000000000000000000000014000000000000000000000000000000000000000000000000000000000000000e4152542d5049434153534f2d3031000000000000000000000000000000000000",
        "nonce": "0x11",
        "chainId": "0xc3501"
      },
      "additionalContracts": [],
      "isFixedGasLimit": false
    },
    {
      "hash": "0x44c03b81acc9bfdbfef8537b18dc863ca043bff6e08e2a69034a075678e5adc3",
      "transactionType": "CALL",
      "contractName": "VaultLedger",
      "contractAddress": "0x6da722064c50ed6d25257392c3832c698d3db6f1",
      "function": "addERC721Asset(address,uint256,string,uint256,uint8)",
      "arguments": [
        "0xb6ab2e98811bFf69Fc60Fb1Cc83A2E043C096247",
        "1",
        "ART-WARHOL-01",
        "2500000000",
        "25"
      ],
      "transaction": {
        "from": "0xb5f4c8af8723e4caa64767dd12f55b40be527be1",
        "to": "0x6da722064c50ed6d25257392c3832c698d3db6f1",
        "gas": "0x3bb04",
        "value": "0x0",
        "input": "0x3a4516f9000000000000000000000000b6ab2e98811bff69fc60fb1cc83a2e043c096247000000000000000000000000000000000000000000000000000000000000000100000000000000000000000000000000000000000000000000000000000000a0000000000000000000000000000000000000000000000000000000009502f9000000000000000000000000000000000000000000000000000000000000000019000000000000000000000000000000000000000000000000000000000000000d4152542d574152484f4c2d303100000000000000000000000000000000000000",
        "nonce": "0x12",
        "chainId": "0xc3501"
      },
      "additionalContracts": [],
      "isFixedGasLimit": false
    }
  ],
  "receipts": [
    {
      "status": "0x1",
      "cumulativeGasUsed": "0x174cb5",
      "logs": [
        {
          "address": "0x6da722064c50ed6d25257392c3832c698d3db6f1",
          "topics": [
            "0x8be0079c531659141344cd1fd0a4f28419497f9722a3daafe3b4186f6b6457e0",
            "0x0000000000000000000000000000000000000000000000000000000000000000",
            "0x000000000000000000000000b5f4c8af8723e4caa64767dd12f55b40be527be1"
          ],
          "data": "0x",
          "blockHash": "0x2800c5751bcc1b276fb1aa2f32f79ec109e283c775ea84b28cc49c6e73e51889",
          "blockNumber": "0x792f4c",
          "transactionHash": "0xa9e5c4600e9402a0cbe04f8fa14e61c0bd7a52cd32b53cd12ece1912ac6c400a",
          "transactionIndex": "0x0",
          "logIndex": "0x0",
          "removed": false
        }
      ],
      "logsBloom": "0x00000000000000000000000000000000000000000000000000800000000000000000000000000000000000000000000000000000000000000000000000000000000000000000000000000000000000000001000000000000000000000000000000000000020000000000000000000800100000000000000000000000000000400000000000000000000000000000000000000000000000000000000000000000000000000000000000000000000000000000000000000000000000000000000000000000000000000080000000000000000000000400000000008000000020000800000000000000000000000001000000000000000000000000000000000000",
      "type": "0x0",
      "transactionHash": "0xa9e5c4600e9402a0cbe04f8fa14e61c0bd7a52cd32b53cd12ece1912ac6c400a",
      "transactionIndex": "0x0",
      "blockHash": "0x2800c5751bcc1b276fb1aa2f32f79ec109e283c775ea84b28cc49c6e73e51889",
      "blockNumber": "0x792f4c",
      "gasUsed": "0x174cb5",
      "effectiveGasPrice": "0x0",
      "from": "0xb5f4c8af8723e4caa64767dd12f55b40be527be1",
      "to": null,
      "contractAddress": "0x6da722064c50ed6d25257392c3832c698d3db6f1"
    },
    {
      "status": "0x1",
      "cumulativeGasUsed": "0x1ad16b",
      "logs": [
        {
          "address": "0x6da722064c50ed6d25257392c3832c698d3db6f1",
          "topics": [
            "0xfd288a46d080f2a24ab4d47d4231a7ae3a4538d57a6c1c9afe6807e6c949f6ea",
            "0x000000000000000000000000916e1af7b6be4dc5dad63976e21ce70aac825b0e"
          ],
          "data": "0x0000000000000000000000000000000000000000000000000000000000000020000000000000000000000000000000000000000000000000000000000000000b424f4e442d474f562d364d000000000000000000000000000000000000000000",
          "blockHash": "0x2800c5751bcc1b276fb1aa2f32f79ec109e283c775ea84b28cc49c6e73e51889",
          "blockNumber": "0x792f4c",
          "transactionHash": "0x78fa7da4ae27b895bebeba960fb94549e0f850a56ed87a698607d8cdaad31c49",
          "transactionIndex": "0x1",
          "logIndex": "0x1",
          "removed": false
        }
      ],
      "logsBloom": "0x00000000000000000000000000000000000000000000000000000000000000000000000000000000000000000000000000000000000000000000000000000000000000000080000000000000000000000000000000000000000000000000000000000000000000001000000000000000000000000000000000000000000000000000000000001000000000000000000000010000000000000000000000000000000000000000000000000008000000000000000000000000000000000000000000000000000000000080000000000000000000000000000000000000000000000800000000000000000000000001000000080000000000000000000000000000",
      "type": "0x0",
      "transactionHash": "0x78fa7da4ae27b895bebeba960fb94549e0f850a56ed87a698607d8cdaad31c49",
      "transactionIndex": "0x1",
      "blockHash": "0x2800c5751bcc1b276fb1aa2f32f79ec109e283c775ea84b28cc49c6e73e51889",
      "blockNumber": "0x792f4c",
      "gasUsed": "0x384b6",
      "effectiveGasPrice": "0x0",
      "from": "0xb5f4c8af8723e4caa64767dd12f55b40be527be1",
      "to": "0x6da722064c50ed6d25257392c3832c698d3db6f1",
      "contractAddress": null
    },
    {
      "status": "0x1",
      "cumulativeGasUsed": "0x1e45a7",
      "logs": [
        {
          "address": "0x6da722064c50ed6d25257392c3832c698d3db6f1",
          "topics": [
            "0xfd288a46d080f2a24ab4d47d4231a7ae3a4538d57a6c1c9afe6807e6c949f6ea",
            "0x00000000000000000000000023ba554ea54a08723aa901c590b29bfbe0da7748"
          ],
          "data": "0x0000000000000000000000000000000000000000000000000000000000000020000000000000000000000000000000000000000000000000000000000000000d524543562d41434d452d39304400000000000000000000000000000000000000",
          "blockHash": "0x2800c5751bcc1b276fb1aa2f32f79ec109e283c775ea84b28cc49c6e73e51889",
          "blockNumber": "0x792f4c",
          "transactionHash": "0x848b475815847a131ae47936f7bc1a03f1dd03d27d7a77c1b7cf2d5c3eb010b9",
          "transactionIndex": "0x2",
          "logIndex": "0x2",
          "removed": false
        }
      ],
      "logsBloom": "0x00000000000000000000000000000000000000000000000000000000000000000000000000000000000000000000000000000000000000000000000000000000000000000080000000000000000000000000000000000000000000000000000000000000000000001000000000000000000000000000000000000000000000000000000000000000000000000000000000000000000000000000000000000000000000000400000000000008000000000000000000000000000000000000000000000000000000000080000000000000000000000000000020000000000000000800000000000000000000000001000000000000000000000000000000000008",
      "type": "0x0",
      "transactionHash": "0x848b475815847a131ae47936f7bc1a03f1dd03d27d7a77c1b7cf2d5c3eb010b9",
      "transactionIndex": "0x2",
      "blockHash": "0x2800c5751bcc1b276fb1aa2f32f79ec109e283c775ea84b28cc49c6e73e51889",
      "blockNumber": "0x792f4c",
      "gasUsed": "0x3743c",
      "effectiveGasPrice": "0x0",
      "from": "0xb5f4c8af8723e4caa64767dd12f55b40be527be1",
      "to": "0x6da722064c50ed6d25257392c3832c698d3db6f1",
      "contractAddress": null
    },
    {
      "status": "0x1",
      "cumulativeGasUsed": "0x21ec35",
      "logs": [
        {
          "address": "0x6da722064c50ed6d25257392c3832c698d3db6f1",
          "topics": [
            "0xfd288a46d080f2a24ab4d47d4231a7ae3a4538d57a6c1c9afe6807e6c949f6ea",
            "0x000000000000000000000000a8d0dd3e0fff072374ccbd608fef4b6bb71543c2"
          ],
          "data": "0x0000000000000000000000000000000000000000000000000000000000000020000000000000000000000000000000000000000000000000000000000000000d524543562d424554412d33304400000000000000000000000000000000000000",
          "blockHash": "0x2800c5751bcc1b276fb1aa2f32f79ec109e283c775ea84b28cc49c6e73e51889",
          "blockNumber": "0x792f4c",
          "transactionHash": "0xcf0a510b972d8e4f1ecd12a8758f3a8bc72a857dc35b54aae6b5e9e0de7ce62c",
          "transactionIndex": "0x3",
          "logIndex": "0x3",
          "removed": false
        }
      ],
      "logsBloom": "0x00000000000000000000000000000000000000000000000000000000000000000000000000000000000000000000000000000000000000000000000000000000000000000080000000000000000000000000000000000000000000000000000000000000001000001000000000000000000000000000000000000000000000000000000000000000000000000000000000000000000000000000000000000000000000000000000000000008000000000000000000000000000020000000000000000000000000100080000000000000000000000000000000000000000000000800000000000000000000000001000000000000000000000000000000000000",
      "type": "0x0",
      "transactionHash": "0xcf0a510b972d8e4f1ecd12a8758f3a8bc72a857dc35b54aae6b5e9e0de7ce62c",
      "transactionIndex": "0x3",
      "blockHash": "0x2800c5751bcc1b276fb1aa2f32f79ec109e283c775ea84b28cc49c6e73e51889",
      "blockNumber": "0x792f4c",
      "gasUsed": "0x3a68e",
      "effectiveGasPrice": "0x0",
      "from": "0xb5f4c8af8723e4caa64767dd12f55b40be527be1",
      "to": "0x6da722064c50ed6d25257392c3832c698d3db6f1",
      "contractAddress": null
    },
    {
      "status": "0x1",
      "cumulativeGasUsed": "0x2576e1",
      "logs": [
        {
          "address": "0x6da722064c50ed6d25257392c3832c698d3db6f1",
          "topics": [
            "0xfd288a46d080f2a24ab4d47d4231a7ae3a4538d57a6c1c9afe6807e6c949f6ea",
            "0x0000000000000000000000007679653255d0128f7553945a917a636c3ed2f7eb"
          ],
          "data": "0x0000000000000000000000000000000000000000000000000000000000000020000000000000000000000000000000000000000000000000000000000000000b535441424c452d55534472000000000000000000000000000000000000000000",
          "blockHash": "0x2800c5751bcc1b276fb1aa2f32f79ec109e283c775ea84b28cc49c6e73e51889",
          "blockNumber": "0x792f4c",
          "transactionHash": "0x9287304882f67002e7bcf1656e4cf4d064d188359b473e97bc5a728741f82d6a",
          "transactionIndex": "0x4",
          "logIndex": "0x4",
          "removed": false
        }
      ],
      "logsBloom": "0x00000000000000000000000000000000000000000000000000000000000000000000000000000000000000000000000000000000000000000000000000000000000000000080000000000000000000000000000000000000000000000000000400000000000000001000000000000000000000000000000000000000000000000000000000000000000000000000000000000000000000000000000000000000000000000000000000000008008000000000000000000000000000000000000000000000000000000080000000000000000000080000000000000000000000000800000000000000000000000001000000000000000000000000000000000000",
      "type": "0x0",
      "transactionHash": "0x9287304882f67002e7bcf1656e4cf4d064d188359b473e97bc5a728741f82d6a",
      "transactionIndex": "0x4",
      "blockHash": "0x2800c5751bcc1b276fb1aa2f32f79ec109e283c775ea84b28cc49c6e73e51889",
      "blockNumber": "0x792f4c",
      "gasUsed": "0x38aac",
      "effectiveGasPrice": "0x0",
      "from": "0xb5f4c8af8723e4caa64767dd12f55b40be527be1",
      "to": "0x6da722064c50ed6d25257392c3832c698d3db6f1",
      "contractAddress": null
    },
    {
      "status": "0x1",
      "cumulativeGasUsed": "0x2846c6",
      "logs": [
        {
          "address": "0x6da722064c50ed6d25257392c3832c698d3db6f1",
          "topics": [
            "0x479c5957eadd8a1e1f77fcf7d35edd5a1fcdbe3b423b90792c29798b80372794",
            "0x00000000000000000000000024a059519f65659337cdafddc104835c11bcb5ce",
            "0x0000000000000000000000000000000000000000000000000000000000000001"
          ],
          "data": "0x0000000000000000000000000000000000000000000000000000000000000020000000000000000000000000000000000000000000000000000000000000000e4152542d5049434153534f2d3031000000000000000000000000000000000000",
          "blockHash": "0x2800c5751bcc1b276fb1aa2f32f79ec109e283c775ea84b28cc49c6e73e51889",
          "blockNumber": "0x792f4c",
          "transactionHash": "0xa2b3572301049ef4fb81b3848224fa53c33681ee35a0c4ff0b531af86eed2903",
          "transactionIndex": "0x5",
          "logIndex": "0x5",
          "removed": false
        }
      ],
      "logsBloom": "0x00000000000000000000000000000000000000000000000000000000000000000000000000000000000000000000000000000000000000000002000000040000000000000000000000000000000000000000000000040000000000000000000000080000000000000000000000000000210000000000000000000000100000000000000000000000000000000000000000000000000000000000000000000000000000000000000000000000000000000000000000000000000000000000000000000000000000000080000000000000000000000000000000000000000040004800000000000000000000000001000000000000000000000000000000000000",
      "type": "0x0",
      "transactionHash": "0xa2b3572301049ef4fb81b3848224fa53c33681ee35a0c4ff0b531af86eed2903",
      "transactionIndex": "0x5",
      "blockHash": "0x2800c5751bcc1b276fb1aa2f32f79ec109e283c775ea84b28cc49c6e73e51889",
      "blockNumber": "0x792f4c",
      "gasUsed": "0x2cfe5",
      "effectiveGasPrice": "0x0",
      "from": "0xb5f4c8af8723e4caa64767dd12f55b40be527be1",
      "to": "0x6da722064c50ed6d25257392c3832c698d3db6f1",
      "contractAddress": null
    },
    {
      "status": "0x1",
      "cumulativeGasUsed": "0x2ad3c7",
      "logs": [
        {
          "address": "0x6da722064c50ed6d25257392c3832c698d3db6f1",
          "topics": [
            "0x479c5957eadd8a1e1f77fcf7d35edd5a1fcdbe3b423b90792c29798b80372794",
            "0x000000000000000000000000b6ab2e98811bff69fc60fb1cc83a2e043c096247",
            "0x0000000000000000000000000000000000000000000000000000000000000001"
          ],
          "data": "0x0000000000000000000000000000000000000000000000000000000000000020000000000000000000000000000000000000000000000000000000000000000d4152542d574152484f4c2d303100000000000000000000000000000000000000",
          "blockHash": "0x2800c5751bcc1b276fb1aa2f32f79ec109e283c775ea84b28cc49c6e73e51889",
          "blockNumber": "0x792f4c",
          "transactionHash": "0x44c03b81acc9bfdbfef8537b18dc863ca043bff6e08e2a69034a075678e5adc3",
          "transactionIndex": "0x6",
          "logIndex": "0x6",
          "removed": false
        }
      ],
      "logsBloom": "0x00000000000000000000000000000000000000000000000000000000000000000000000000000000000000000000000000000000000000000000000000040000000000000000000000000000000000000000000000040004000000000000000000080008000000000000000000000000010000000000000000000000000000000000000000000000000000000000000000000000000000000000000000000000000000000000000000000002000000000000000000000000000000000000000000000000000000000080000000000000000000000000000000000000000040004800000000000000000000000001000000000000000000000000000000000000",
      "type": "0x0",
      "transactionHash": "0x44c03b81acc9bfdbfef8537b18dc863ca043bff6e08e2a69034a075678e5adc3",
      "transactionIndex": "0x6",
      "blockHash": "0x2800c5751bcc1b276fb1aa2f32f79ec109e283c775ea84b28cc49c6e73e51889",
      "blockNumber": "0x792f4c",
      "gasUsed": "0x28d01",
      "effectiveGasPrice": "0x0",
      "from": "0xb5f4c8af8723e4caa64767dd12f55b40be527be1",
      "to": "0x6da722064c50ed6d25257392c3832c698d3db6f1",
      "contractAddress": null
    }
  ],
  "libraries": [],
  "pending": [],
  "returns": {},
  "timestamp": 1774730097,
  "chain": 800001,
  "commit": "c05d77b"
}